:020000040000FA
:2000000000800020BD0100006D9501002595010025950100259501002595010025950100D8
:200020002595010025950100259501006D9501006D95010025950100998901009D8A010083
:200040006D9501006D9501006D9501006D9501006D9501006D9501006D9501006D95010088
:200060006D9501006D9501006D9501006D9501006D9501006D9501006D9501006D95010068
:200080006D9501006D9501006D9501006D9501006D9501006D9501006D9501006D95010048
:2000A000C1990000CD9900006D9501006D9501006D9501006D9501006D9501006D9501006E
:2000C0006D9501006D9501006D9501006D9501006D9501006D9501006D9501006D95010008
:2000E0006D9501006D9501006D9501006D9501006D95010071A401006D95010029B70100F7
:200100006D95010055B801006D9501006D9501006D9501006D9501006D9501006D950100BC
:200120006D9501006D9501006D9501006D9501006D9501006D9501006D9501006D950100A7
:200140006D9501006D9501006D9501006D9501006D9501006D9501006D9501006D95010087
:200160006D95010031A701006D9501006D9501006D9501006D9501006D9501006D95010091
:200180006D9501006D9501006D9501006D9501006D9501006D9501006D9501006D95010047
:2001A0006D9501006D9501006D9501006D9501006D9501006D9501006D950100564B4CF24B
:2001C000205210B51A804DF628121A8000BF00BF19F0D0F9514B4FF010621A60504A9A608C
:2001E000504ADA60504A136813F4807304D14F490B604FF4A85313604D4B1A78110703D579
:200200001A7842F008021A704A4B4B492A221A704A4A4B4B8B4204D252F8040F43F8040B13
:20022000F8E7484B484900228B4202D243F8042BFAE74649464A002352F8230041F82300A2
:2002400001336F2BF8D1434B434A802103F8011B9342FBD1414B3D4A1A60414B8A221A7044
:20026000A3F5805324225A70A0221A709A799207FCD59A79D406FCD43A4A937903F00C03EB
:20028000082B384BF9D103221A714C225A719A799006FCD5334A9179324B4906FBD5324ADC
:2002A0004FF0017111600421516020221A709A7902F00C020C2AFAD12C4B2D4A1A602D4B86
:2002C0002D4A1A6000225A60072243F8042C2B4AC3F80C2D62B619F031FD144B1B68DA0742
:2002E00005D5274819F08AFC264B274A1A60274B1B785B0609D5234C234B22689A4204D16E
:200300001F4819F07BFC002323601DF079FE19F037F919F065F8FEE70E20054030800440E1
:20032000823F04000100002B10D0034014D0034002D0074000E00740B898FF1F803A030017
:200340002087FF1FB898FF1F5CA9FF1F0082FF1F0000000000E400E05FE400E008ED00E0EB
:2003600000500640004006404480044004800440C010050014E000E07F32020000002020F5
:200380002DB4935B1CE00340A5C3945A00F00740FFFFFFFFFFFFFFFFFFFFFFFFFFFFFFFFD2
:2003A000FFFFFFFFFFFFFFFFFFFFFFFFFFFFFFFFFFFFFFFFFFFFFFFFFFFFFFFFFFFFFFFF5D
:2003C000FFFFFFFFFFFFFFFFFFFFFFFFFFFFFFFFFFFFFFFFFFFFFFFFFFFFFFFFFFFFFFFF3D
:2003E000FFFFFFFFFFFFFFFFFFFFFFFFFFFFFFFFFFFFFFFFFFFFFFFFFFFFFFFFFFFFFFFF1D
:20040000FFFFFFFFFFFFFFFFFFFFFFFFDEF9FFFF10B5054C237833B9044B13B10448AFF375
:2004200000800123237010BDB898FF1F000000007C3A0300084B10B51BB108490848AFF36A
:2004400000800848036803B910BD074B002BFBD0BDE81040184700BF00000000BC98FF1F0B
:200460007C3A0300B898FF1F0000000008B504491DF046FB4FF084411DF03AFA08BD00BF34
:200480006666E63F70B51C4B1B78032B06462DD010F0ECFE194A1A4B1568186004464FF0A5
:2004A0008C4128461DF02CFB014620461DF01EFA144B19681DF01CFA134B04461860304662
:2004C0001DF0CAFA29461DF01BFB21461DF010FA0E4A127803463AB10D491DF011FB4FF077
:2004E00084411DF005FA0346184670BD064A034B084C14601D68E2E726A4FF1FAC9FFF1F52
:2005000050A4FF1FA49FFF1F30A4FF1FFFA5FF1F6666E63F339388C31E4B1B7870B5002B66
:200520002CD04FF084411DF0E1F91B491DF0E8FA1A4B1B78032B054625D010F097FE184A24
:20054000184B1468186006464FF08C4120461DF0D7FA014630461DF0C9F9134B19681DF030
:20056000C7F9124B0146186028461DF0BFF921461DF07AFB1DF0C6FC80B270BD074B1B7870
:20058000032B0546D9D1094A054B094911601C68EAE700BFFFA5FF1FE4380E3F26A4FF1FAB
:2005A000AC9FFF1F50A4FF1FA49FFF1F30A4FF1F339388C32D4B1B7813B12D4B1B7803B1CE
:2005C00070472C4B70B51888FFF75CFF002104461DF048FC002835D020464FF07C511DF06F
:2005E00087F91DF069FC0446234B1888FFF74AFF002124B205461DF035FC70B34FF07C51C3
:2006000028461DF075F91DF057FC06461B4B1D68601E1DF021FA29461DF02EFCD8B936B295
:20062000701C1DF019FA014628461DF025FC40B130461DF011FA014628461DF057F9104B3F
:20064000186070BD20464FF07C511DF04FF91DF033FC0446C8E72046EBE74FF07C51284647
:200660001DF044F91DF028FC0646CFE7FEA5FF1F01A6FF1FFCA5FF1F58A6FF1F38A4FF1FA2
:20068000A49FFF1F174B1878F8B910B5164A174912680C6882B047F230510192019A121B9C
:2006A0008A4210D9124A12780121197072B90FF013FE104B187830B90F4B1B78012B0ED0EE
:2006C0000E4B00221A7002B010BD704710F0A8FB0FF002FE074B18780028EDD0F3E710F09C
:2006E0009FFBEDE705A6FF1F80A6FF1F649FFF1F26A6FF1FFEA5FF1F3EA4FF1F01A6FF1FEE
:200700002DE9F04F8FB00A93031E089340F30A8100260027CDE90467CDE90267CDE9006784
:20072000A2F1040A01EB430BCDF818B0B046D346B9468A463AF8024B20461CF045FD0246F8
:200740000B46DDE900011CF0F3FBCDE9000120461CF02AFD02460B461CF09CFD02460B4660
:20076000DDE902011CF0E4FB5BF8045FCDE9020120461DF071F929461DF0C2F91CF036FD03
:2007800002460B46DDE904011CF0D2FBCDE9040128461CF02BFD04460D4602460B46404603
:2007A00049461CF0C5FB22462B4680468946204629461CF06FFD0B460246394630461CF089
:2007C000B7FB069B534506460F46B3D1DDE9000102460B46CDE906891CF05CFD04460D4662
:2007E00008981CF0F1FCDDE9022382468B461CF051FD22462B461CF099FB00220023CDE90E
:2008000008011CF0AFFF8046002878D1DDE90623DDE900011CF03EFDDDE90423CDE90C0131
:20082000504659461CF036FDDDE90C231CF07EFBDDE908231CF058FE1DF004F80A99DDE905
:2008400006230860DDE902011CF024FDDDE90423CDE90A01DDE900011CF01CFD02460B46DE
:20086000DDE90A011CF062FBDDE908231CF03CFE1CF0E8FF189B1860199B002B4CD0DDE928
:200880000623104619461CF005FD52465B461CF02BFE02460B46304639461CF047FB52468A
:2008A00006460F465B46204629461CF01DFE02460B46DDE902011CF039FB02460B46304649
:2008C00039461CF0E7FC1BF001F9524604460D465B46DDE90C011CF007FE02460B46DDE98C
:2008E00004011CF023FB2B4622461CF0FDFD1CF0A9FF199B186040460FB0BDE8F08F0A9AFD
:2009000000231360189A4FF001081360199A404613600FB0BDE8F08FDDF8648040460FB047
:20092000BDE8F08F0024002526462F46CDE90645CDE90445CDE90245CDE9004550E700BF7B
:200940002DE9F04F0E46ADF5277D054620B1A24B1B78032B00F01A81A04ADFF8B8A2002414
:2009600014809F4A4FF6FF734FF000091380002D00F0F480CB460027A1469A4B1B680693B7
:20098000DDF818800A2019F089F910F073F8DAF8003003F5834403F5A64E0E340EF10E0EC0
:2009A000002004F11C01234633F8022F8B421044FAD104F5A0747445F3D11DF04DF88A49A5
:2009C0001DF052F91DF09EFA80B24845DAD00028D8D0044610F06CFC594681461CF086FF38
:2009E000002183461DF048FA00283FD058467F491DF024FA10B3794A42AB128843F82790F7
:200A0000764BA24238BF1C80754B1A8810A9A242774A88BF1C8021F81740FB1782FB0712E3
:200A2000C3EBA20303EB8303B7EB430F4FD1002D00F09F80F8B21AF095FD0137694B1B68EA
:200A40000793079BC8EB03036E2BF7D909F0A2FE38B136B96DB92946012011F06BFC002881
:200A600031D0632F36DCCB46A14686E70BF10040BDE7632FF7DD5F4E5F4C009405AA334612
:200A800010A90192642042AAFFF73AFE10F0EEFB5A4B05461D6030684FF08C411DF030F83D
:200AA000294606462068564C1CF020FF014630461CF01EFF2060012010F0B2F90FF0C8FA33
:200AC0008C201AF04FFD0DF5277DBDE8F08F002DB3D0AFE7DFF81C81474F00970DF1140B46
:200AE00042AA434610A9CDF804B06420FFF708FE10F0BCFB414B0146196038681CF0F6FE2C
:200B00003F4B03904FF08C41D8F8000002931CF0F7FF039A014610461CF0EAFE029B186002
:200B2000002DC8D1DBF80030029318464FF07C511DF084F9029B50B1A6B10121314812F0D1
:200B400077FA4FF47A7019F0A9F8DBF8003018464FF07C511DF072F98346D8B1304613F09D
:200B6000D5FE07E713F06CFE002855D0DBF80030EDE73A4608A824491EF0ACF82B4608A8B3
:200B80008C2242F20E710BF02DFF56E700201AF0E9FC98E7D8F800001CF028FB0446386819
:200BA0000D461CF023FB2246CDE900012B46174908A81EF08FF8594608A812F039FA4FF4BC
:200BC000FA6019F06BF80FF043FA002E40D010480CF0E0F877E700BF26A4FF1F58A6FF1F88
:200BE000FCA5FF1F80A6FF1F000044430000204167666666AC9FFF1F30A4FF1F50A4FF1F04
:200C0000A49FFF1FB82E0200A82E0200D42E020090490200F0A5FF1F154B164AC8F8002081
:200C2000012238681A701CF0E1FA0FA3D3E90023CDE90001104908A81EF04CF8314608A8B6
:200C400012F0F6F94FF4FA6019F028F80FF000FA01210A4812F0ECF94FF47A7019F01EF83D
:200C6000B5E700BFAFF30080000000E051B89E3F05A6FF1F8FC2F53CD42E0200F02E0200C2
:200C800010B5104B1C784CB10F4B1B78032B0FD000210846FFF754FE012010BD01210B488F
:200CA00012F0C6F94FF47A7018F0F8FF204610BD0121074812F0BCF94FF47A7018F0EEFFCA
:200CC000002010BD05A6FF1F26A4FF1F102F0200302F02002DE9F043204B214A1868596874
:200CE00015681A7A85B001AB03C305F51F751A70A02644F66027A5F59E7808F104094FF0A8
:200D0000FF3E002001AB0EF1010E03EB0E0C4A4600231CF80310B2F840410333092B04FB46
:200D20000100A2F5A072F4D1BEF1020FA9F10209E8D11CF091FE4FF076511CF0E1FE1DF08D
:200D4000E1F828F8020F4545D7D1A036BE4205F5A075D0D105B0BDE8F08300BF542F0200C0
:200D6000F0A5FF1F2DE9F0431F4B204A1868596815681A7A85B001AB03C305F51F751A7092
:200D8000A02644F66027A5F59E7808F104094FF0FF3E002001AB0EF1010E03EB0E0C4A4628
:200DA00000231CF80310B2F840410333092B04FB0100A2F5A072F4D1BEF1020FA9F1020981
:200DC000E8D11CF049FE0A491CF04EFF1DF09AF828F8020F4545D8D1A036BE4205F5A07573
:200DE000D1D105B0BDE8F083602F0200F0A5FF1F000010412DE9F04F83B04FEA014CDDF80C
:200E000030809CFBF3FCB8F1000F4FEA024494FBF8F439DD4FF0000901340CF1010CCB463C
:200E2000CA46A6460192002B13DD4FEA2B4703EB090601FB07F700EB460600EB49040022D5
:200E400007EB2245624430F8155024F8025BB442F6D10AF1010AD045F3448944E3D10025D8
:200E6000019AAE464FF6FF76994227DD5C190D4400EB440400EB450724F8026BBC42FBD1C7
:200E80000EF1010EF045EFD1424514DD01FB08F34FF6FF75002903EB010607DD00EB4303F4
:200EA00000EB460423F8025B9C42FBD108F1010842453346EED103B0BDE8F08F0EF1010E35
:200EC000F0450D44D0D1DFE72DE9F04F744B1B7883B023B1734B1B78002B40F0B680724BD8
:200EE000DFF8D8911D6871497826A024704B1F6838461CF005FE002180461CF0B3FF002875
:200F000000F0C48040464FF07C511CF0F1FC1CF0D3FF8046494638461CF0F2FD00210746F8
:200F20001CF0A0FF002800F0A9804FF07C5138461CF0DEFC1CF0C0FF1FFA88F887B243462F
:200F40003246214628460097FFF754FFC8EB04001CF082FD4FF07C511CF0D2FD0021804654
:200F60001CF080FF002800F081804FF07C5140461CF0BEFC1CF0A0FF81B219B3601E40000D
:200F800005EB000A4FF0000802304FF6FF7CD64673460022013233F8029CA3F80090B2420C
:200FA0000344F7D1AEF1020EAE45F1D100231A460132B24225F803C00344F9D108F1010821
:200FC0008845E4D1F01B1CF047FD4FF07C511CF097FD002107461CF045FF00283ED04FF055
:200FE0007C5138461CF084FC1CF066FF1FFA80F9B9F1000F26D0A6F1020804FB08F8604226
:2010000005EB4808013E400005EB440C4FF0000A4FF6FF7EC34600275B463246198823F8C1
:201020001410013A0344F9D10137A7420BF1020BF2D12B4623F802EB6345FBD10AF1010A60
:20104000D145E7D103B0BDE8F08F1A4BDFF870901D681949F0264FF4A07447E74FF07C5121
:2010600038461CF043FC1CF027FFBFE74FF07C5140461CF03BFC1CF01FFF7DE74FF07C5160
:2010800038461CF033FC1CF017FF55E740464FF07C511CF02BFC1CF00FFF80463AE700BFB4
:2010A0003CA4FF1FA99FFF1FF0A5FF1F0000204320A6FF1FF8A5FF1F0000A0430000F04202
:2010C000000070432DE9F0412F4B1B78022B0BD02E4B01EB81011B6800EB411103EB410526
:2010E00000232B80BDE8F081294A034627481468056801EB810103EB41134FF07E502146D4
:2011000035F8136005EB43051CF0F0FB2149804620461CF0F5FC0746F01000F0FC001CF028
:201120009BFC41461CF0ECFC39461CF0E1FB1CF0E9FE3312C4B203F0F8001CF08DFC414681
:201140001CF0DEFC39461CF0D3FB1CF0DBFEF60000F0F80040EA541306F0F8001E021CF0E2
:201160007BFC41461CF0CCFC39461CF0C1FB1CF0C9FEE40004F0E004C0F3C400044346EAD9
:2011800004032B80BDE8F0813DA4FF1FF0A5FF1F28A4FF1F0000FE422DE9F041314F324E64
:2011A00000253B78002453B121462846FFF78AFF3B780134A4B203EB83039C42F4DB3378D1
:2011C00077246BB121462846FFF77CFF3378C3EB8372013CC3EB8203A4B277339C42F1DCA9
:2011E0000135ADB2A02DDCD133783D78C3EB8372C3EB820305EB850577339D422FDCDFF8C5
:2012000070801A4F98F8003000245BB120462946FFF758FF98F800300134A4B203EB8303A4
:201220009C42F3DB3B789F246BB120462946FFF749FF3B78C3EB8372013CC3EB8203A4B241
:201240009F339C42F1DC3378C3EB83720135C3EB8203ADB27733AB42D4DABDE8F081BDE8FB
:20126000F08100BFF4A5FF1F6A9FFF1F2FA6FF1F24A6FF1F2DE9F04F9F4B8BB00590B3F9CA
:2012800000001CF0E9FB4FF07E511CF02FFB9B4B044618889A4B1B88C01A1CF0DDFB0146BD
:2012A00020461CF0E1FC974B079097499748984A1B68006809681268009300230690019111
:2012C00004920990089308981CF0C6FB91491CF017FC05461CF0F0FD04461CF0BDFB014645
:2012E00028461CF003FB04EB84040146630107464FF07E5003931CF0F9FA4FF00009099E76
:201300008046CA460AE0069B23F81A000AF1010ABAF5A07F06F1020600F0DC8050461CF076
:201320009BFB7D491CF0ECFB04461CF0C5FD039B05461D441CF090FB014620461CF0D6FADC
:20134000019B014683466C004FF07E501C441CF0CDFA814660881CF07FFB59461CF0D0FB8A
:2013600041461CF0CDFB019B029033F815001CF073FB49461CF0C4FB41461CF0C1FB029AE5
:20138000014610461CF0B4FA0546B4F840011CF063FB39461CF0B4FB49461CF0B1FB01468C
:2013A00028461CF0A5FA0546B4F842011CF054FB3946044658461CF0A3FB014620461CF0B5
:2013C0009FFB014628461CF093FA1CF09BFD059B80B2002B97D0494B1A88494B90421988E0
:2013E00028BF104688422CBFC1EB0000C1EB01001CF032FB07991CF083FB1CF083FD049B14
:201400000099348880B200EB40024FF07E5003EB020902921CF06AFA054699F801001CF025
:201420001BFB29461CF06CFB8346E01000F0FC001CF012FB00991CF063FB014658461CF002
:2014400057FA1CF05FFD5FFA80FB99F802001CF003FB29461CF054FB8146E00000F0F80009
:201460001CF0FAFA00991CF04BFB014648461CF03FFA1CF047FD049B029A4FEACB0101F0E6
:20148000E001C0F3C409985C49EA01091CF0E4FA29461CF035FB0546201200F0F8001CF0B4
:2014A000DBFA00991CF02CFB014628461CF020FA1CF028FD00F0F80040EA5B1B0AF1010AF1
:2014C00049EA0B29BAF5A07FA6F8009006F102067FF424AF069A089B02F520720692099A5D
:2014E000013302F52072F02B089309927FF4EBAE0BB0BDE8F08F00BFEAA5FF1F58A6FF1F6B
:20150000FCA5FF1F28A4FF1FF0A5FF1FF8A5FF1F28A6FF1FDEDDFD3E6666FE3E044B002259
:2015200003F5C0711A805A8004338B42FAD1704768A4FF1F2DE9F047284D294F84B005F5F6
:20154000C07629884B1E9BB2A7FB0302D20902EB8204A3EB441464005200A4B2B9B3EE2A83
:20156000134602F10F0988BFE42322462046A4F1140488BF4FF0F30819464FF0000A24B23F
:2015800094BF0FFA89F8C1460AF0E4F9544540F2171303DB9C42A8BF1C46A246B9F1E50F90
:2015A000688894BF4446E524FEF76CFF1BF01EFE2E224FF0200C4FF0000E01920094534606
:2015C000CDF80CC0CDF808E002220BF087FB0435B542B6D104B0BDE8F08700BF68A4FF1FBC
:2015E000CDCCCCCC2DE9F041804682B00F4609F0D1F80028FBD000242546264609F0CAF8BB
:20160000A0B1684609F05CF8BDF90020BDF9023091B2B1F5A07F98B2F0D8F028EED815446F
:201620001C44013609F0B6F80028EAD1B5FBF6F5B4FBF6F4A8F800503C8002B0BDE8F081E1
:201640000E4B1A6870B40E4D0E4C02F5154600204FF6FF71FE36023A2880218001E0288865
:20166000218832F8023F834288BF2B808B4238BF2380B242F3D170BC704700BFF0A5FF1F2B
:2016800058A6FF1FFCA5FF1F10B4154B1B78042B09D8DFE803F00A10161D03000023FF2458
:2016A00003700B70147010BC7047FF23037010BC0B70137070470023037010BC0B701370BF
:2016C0007047FF24002304700B7010BC137070470023FF2403700C70137010BC704700BF1E
:2016E00000A6FF1F2DE9F04F5F49604E604F3488B7F800A0DFF8988185B000230546B1F984
:2017000000008DF80D308DF80E308DF80F301CF0A3F94FF07E511CF0E9F88146CAEB04005D
:201720001CF09AF9014648461CF09EFA009098F80000F8B14F4B1B78022B1BD04E4BB3F93E
:2017400000001CF089F9FEF7E7FE1CF081F94B4B01901B78B7F800A0348898F80000012B1A
:201760000ED16DB9464B1B7853B1464B4FF496351B6809E000230193404B1B78012BF0D070
:20178000414B1B684FF496459B4603EB4505DFF8049123465C46D3462FE0012857D0CBEB5E
:2017A0000A001CF059F900991CF0AAF91CF0AAFB80B2D9F8003000EB4000195C8DF80D1053
:2017C000184490F801E08DF80EE083788DF80F304FEACE0201F0F80102F0E00241EA5E11B1
:2017E00042EAD30343EA012324F8023BA54238D03388B7F800B098F8000021888B4228BF47
:201800000B465B4538BF5B4602289A46C5D118461CF022F9014601981CF01AFB0028BED063
:201820001A4B19780029BAD0124B19780229B6D00DF10E010DF10F020DF10D00FFF724FF20
:201840009DF80D109DF80EE09DF80F30C0E718461CF002F9014601981CF004FB0028DFD1B0
:201860009DE705B0BDE8F08FEAA5FF1F58A6FF1FFCA5FF1F3DA4FF1F2CA6FF1F3CA4FF1F96
:20188000A99FFF1FF8A5FF1FF0A5FF1F05A6FF1F26A6FF1F28A6FF1F124BF0B51A68124EF1
:2018A000124DDFF850E0124F00234FF6FF701C46023A3380288001E02888348832F8021FF9
:2018C000814204D2AEF800301188298011888C4202D23B80118831800133B3F5964FEBD19A
:2018E000F0BD00BFF0A5FF1F24A4FF1F36A4FF1F1EA6FF1F02A6FF1F0E4B0F49F0B41F6867
:201900000E4E01F5C0750888421E92B2A6FB0243DB0903EB8304A2EB4412630113FA82F205
:2019200010B137F812304B800431A942EBD1F0BC704700BFF0A5FF1F68A4FF1FCDCCCCCC9E
:201940000D4B10B4A3FB0243DB0903EB83045B00EE2BA2EB441294BF1BB2E42352000280DD
:201960000B80B0F9003010BCB3F59F7FA8BF4FF49F730380704700BFCDCCCCCC10B504467C
:201980000FF078F80EF086FD244B1B78032B01D0FEF710FEFFF7B0FF214B1B78E3B9214BA7
:2019A0001B7813B1204B1B781BB3204B1B78032B25D01F4B1B78022B2AD0012B2BD01D4B30
:2019C0001B78012B0BD01C4B1B7803B110BD2046BDE81040FFF786BEFFF75EFFDFE7002C18
:2019E000F1D1164B1B78002BEDD02046FFF742FCE9E7FFF725FE0D4B1B78032BD9D10022E1
:201A00000F49012002F0EAFA094B1B78022BD4D1FFF7A8F9D3E7FFF75DF9D0E726A4FF1F82
:201A2000EDA5FF1FFEA5FF1F01A6FF1F34A4FF1F9C9FFF1F3CA4FF1FB09FFF1FA99FFF1F50
:201A400008A6FF1F10B50CF01DF80FF013F80EF021FD324B1B78032B01D0FEF7ABFDFFF71C
:201A60004BFF2F4B1B78EBB92E4B1B7813B12E4B1B7873B32D4C2378012B16D02C4B1B7839
:201A8000022B19D0237813B12A4B1B784BB9FFF71BFAFFF781FB00210846BDE810400CF0E8
:201AA00075B810BDFFF7F8FEDEE7224B1B789BB91F4B1B78022BEAD11F4B1B78022B26D022
:201AC000012B27D0207801281AD00020FFF70AFED8E7FFF7B5FDCDE7184B1B6803F51532DA
:201AE00002F2FE32023B4FF6FF7123F8021F9342FBD1002108460CF049F8FFF7E5F9BDE7CF
:201B00000C4B1B78002BE0D0FFF7B4FBBAE7FFF729F9D7E7FFF7DEF8D4E700BF26A4FF1FB6
:201B2000EDA5FF1FFEA5FF1F01A6FF1F3CA4FF1F3DA4FF1FA99FFF1F9C9FFF1FF8A5FF1FF8
:201B40002DE9F04F85B06E4F0090002800F09380002302E0602B00F09A8037F82320013343
:201B6000002AF7D00023019300240A2018F096F8644B1878002840F09580FFF7FFFE0EF03C
:201B80007BFB11F037FA4FF0FF300AF079FB5E480BF000F9FFF7CEFC5C480BF0FBF80023B2
:201BA000D22242F20E715A480AF01CFF0DF10E0103A8FFF717FDBDF80C80BDF80EC0009AA7
:201BC0004FEA5C0C4FEA5808ADF80C80ADF80EC06346002A6CD0A8F10A091FFA89F908F1D8
:201BE0000A08C14561DC0CEB8C0A4FEA4A1AACF10A0B1FFA8AFAAAF5C86A1FFA8BFB0CF1AA
:201C00000A0C0025DC4523DB09EB0A06B6B2DE46B6F5964F14D23F4B711C03F5C07089B2EA
:201C200002E0043383420BD033F8022C8A42F8D123F8024C1C80043383424FF00105F3D1F3
:201C40000EF1010E1FFA8EFEA036F445B6B2DFDA09F101091FFA89F9C145D3DD11F05EFAF3
:201C6000002D47D101212C4811F0E2F94FF47A7018F014F879E7009B01E0602B31D037F8D5
:201C80002320D9B201910133002AF6D16CE72348012111F0CDF94FF47A7017F0FFFF05B031
:201CA000BDE8F08FFFF7CEFE69E711F037FAD9E7019908F1010803EB830307EB810208EB84
:201CC000431327F82130BDF80030538011F026FA0121134811F0ACF94FF47A7017F0DEFF31
:201CE000DDE701210F4811F0A3F94FF47A7017F0D5FFD4E701210C4811F09AF9ECE700BFAB
:201D000068A4FF1F3DA4FF1F90490200AC3D02006C2F02006AA4FF1F8C2F0200AC2F020071
:201D2000A02F0200C02F02007C2F02000F4A137A526A03F0080303F0FF00B3B142F2955322
:201D40009A4211D042F215739A420DD049F215639A4209D049F295739A4205D0044BD01ABC
:201D6000B0FA80F04009704701207047709FFF1F42600900F0B52F482F4D304C3049314A91
:201D8000314B2F68266805680C68106819680022023F013E013D013C0138013913460132AC
:201DA000B2F5FA7F27F8023F4FF0000E06F8013F05F8013F04F8013F00F8013F01F8013F2E
:201DC000EDD1224A224D1268224C234B2A80120C2768AA702148224D1B682249224E046801
:201DE0002B8003C93A0C1B0C3780B270AB701F4E1F4A204B3480250C14801860B5709570AF
:201E00001D4F1E4E1E4D1F4C1F48204A1971204B87F800E086F800E085F800E084F800E0D8
:201E200080F800E082F800E0C3F800E0BDE8F040FFF774BBE898FF1FF098FF1FF898FF1F69
:201E40000099FF1FE098FF1FFC98FF1FD82F02001888FF1FDC2F0200E02F0200E42F020089
:201E60000488FF1F103002001488FF1F0088FF1F0888FF1F0C88FF1FD498FF1FE598FF1F91
:201E8000F598FF1FDC98FF1FE498FF1FF498FF1FD898FF1F08B502F0ADFE134B1B78022BBB
:201EA0001BD0012B1CD0114B1B7863B9104B1B78012B0ED00020FFF715FC11F0B5FDBDE89D
:201EC00008400EF0D9B9FFF7E7FC094B1B78012BF0D10020FFF7CEF9ECE7FEF743FFE2E7CD
:201EE000FEF7F8FEDFE700BF9C9FFF1FEDA5FF1F3CA4FF1F2DE9F04F044687B000200DF078
:201F00007BFD554B554819682246012304F0B6FF422401220DF11701504805F00FF8013CE6
:201F2000F7D14F4B1B78002B50D14E4E4FF0B408B2464FF0010977277D1005EB8505AD0135
:201F4000002401220DF11701444804F0F7FF012201280DF1170141480CBF9DF817B04FF05D
:201F6000FF0B04F0EBFF012808BF9DF9173032680CBF1B026FF0FF0305EB640101344BEA0A
:201F80000303B4F5207F22F81130DAD117F1FF37D2D20DF071FDDAF8003041468DE8080298
:201FA0004FF4A0723C2300200AF016FFA8F13C0800200DF021FD18F13C0FBCD1274804F0E2
:201FC00031FE0DF059FD07B0BDE8F08F264E40F2DF177D1005EB8505AD01002401220DF10E
:201FE00017011E4804F0AAFF012201280DF117011A480CBF9DF817804FF0FF0804F09EFF34
:20200000012808BF9DF9172030680CBF13026FF0FF0305EB6401013448EA0303B4F5207F20
:20202000114A20F81130D9D117F1FF37D1D20B48039204F0F7FD0DF01FFD039A13680093CD
:202040000021012301930846F0234FF4A0720AF0C3FE07B0BDE8F08F2499FF1F789FFF1F4B
:202060003CA4FF1FF0A5FF1FF8A5FF1F10B5044601200DF0C1FC0C4B0C4819682246012352
:2020800004F0FCFE0A4B1B7A03F0080353B903F0FF00A0730446054804F0C4FD0DF0ECFC28
:2020A000204610BD0124F6E72499FF1F789FFF1F709FFF1F2DE9F041E2B002AE344662AF9A
:2020C0004FF6FF680CE001220DF107013A4804F035FF01285ED0A4F800800234BC4220D0FE
:2020E00001220DF10701344804F028FF01280246E9D131489DF807500DF1070104F01EFF79
:2021000001284FEA052547D04FF6FF732B449BB24FF6FF72934208BF002323800234BC425D
:20212000DED10DF10A030DF5C371002033F8022B32B133F8042C1AB91A88002A08BF012072
:202140008B42F3D158B300211C4E08460DF1060501E0C0291BD0CAB2130903EB830302F04E
:202160000F0202EB431303EB830335F8024F5B0006EB800700F1010E01330131002CE8D0FC
:2021800026F820305FFA8EF060287C80E1D162B0BDE8F0814FF47F459DF80730B6E7084BD9
:2021A0003188728823F8021C0436B74223F8042BF6D162B0BDE8F081789FFF1F68A4FF1F68
:2021C0006AA4FF1F2DE9F04706468AB00C4600200DF012FCE4B1227800232F2A8DF804301F
:2021E0008DF8053000F0D98101AD224628460123C24904F043FE58B19DF8043013F0700F9F
:2022000006D00FCDBD4C0FC40FCD0FC42B682360BB4BBC4C196804F108000123324604F04F
:202220002DFED4F8248042F29553984500F0098142F21573984500F0048149F215639845F2
:2022400004D049F29573984540F09081AE4F002401AD01222946AD4804F070FE012808BFA1
:202260009DF80430A9484FF0010229460CBF1E024FF47F4604F062FE012808BF9DF80430F3
:202280003A6818BFFF23334413530234B4F5164FDFD1012229469D489D4E04F04FFE012806
:2022A00008BF9DF8043099484FF0010229460CBF1C024FF47F4404F041FE012808BF9DF855
:2022C0000430924818BFFF23234401222946338004F034FE012808BF9DF804308B484FF05A
:2022E000010229460CBF1C024FF47F4404F026FE012808BF9DF80430864A18BFFF2323447C
:2023000013802C4602AE2F4601220DF103017F4804F014FE01280CBF9DF80330FF2307F8C4
:20232000013BB742F0D128460DF064FB7A4B012218600DF10301754804F000FE774A0128E2
:2023400008BF9DF80330714818BFFF2313700DF10301012204F0F2FD012800F018810123DB
:202360006F4A6A4813700DF10301012204F0E6FD012800F0258101236A4A644813700DF1AF
:202380000301012204F0DAFD012800F013810123654A5E4813700DF10301012204F0CEFDBE
:2023A000624A01280CBF9DF80330FF2313702F4601220DF10301554804F0C0FD01280CBF34
:2023C0009DF80330FF2307F8013BB742F0D128460DF010FB564F386001220DF103014B48B3
:2023E00004F0ACFD01280CBF9DF80330FF2304F8013BB442F0D128460DF0FCFA4D4A42F247
:20240000955398450446106055D042F21573984551D049F21563984500F0948049F2957387
:20242000984500F08F80FFF779F842F21573984560D0364804F0F6FB0DF01EFB0AB0BDE8B8
:20244000F087314F4FF4207601ADA6F27E29A6F5A074012229462D4804F070FD012808BFB8
:202460009DF8043029484FF0010229460CBF4FEA032A4FF47F4A04F061FD012808BF9DF85D
:2024800004303A6818BFFF2302EB090053449BB220F8023C111922F8093013530434A6423A
:2024A0004B8009F10409D4D106F5207649F680039E42CAD1EDE6204938681BF0B5FC002817
:2024C0004CD01E4920461BF0AFFC002846D01C4B49F2156203219045197003D049F295726F
:2024E0009045A0D103221A70FFF718F849F2957398459AD1FFF7DEFD9BE700BFF0A3FF1F93
:202500002499FF1F709FFF1FF0A5FF1F789FFF1FFCA5FF1F58A6FF1F38A4FF1FEEA5FF1F45
:20252000FFA5FF1F35A4FF1F25A6FF1FEDA5FF1F30A4FF1FAC9FFF1F339388C30AD7233C9D
:2025400026A4FF1F386821491BF06EFC50B120461F491BF069FC28B11E4BC3E71D4B00225F
:202560001A7056E71B4B01221A70BDE700211A4810F05EFD4FF47A7017F090FB04F1080043
:2025800004F050FB0DF078FA0AB0BDE8F0879DF80330003318BF0123E2E66378002B7FF480
:2025A00023AE0E4804F03EFB0D4901F23C4004F0BFFC2DE69DF80330003318BF0123E7E67D
:2025C0009DF80330003318BF0123D5E6339388C30AD7233C26A4FF1FE82F0200F0A3FF1F47
:2025E000B49FFF1F2DE9F0438FB000AF3D1D00210446322228461CF011F9494B1968002958
:2026000040F38780474B1A681388B3F5FC635DD4312B68DC02EB41010120023206E032F865
:20262000023BB3F5FC6351D4312B5CDC07F1380633448A4203F8340CF1D197F835103E799C
:20264000DFF8F4E09EF8000007F135032A460EB10130C0B29A4202D012F8016FF7E78200AF
:202660000A3222F007020020ADEB020D8446E8468EF800000246C5F5FC6939B1501CC0B28F
:2026800009EB030648F822608C460246AB4202D013F8011DF1E7BCF1000F3DD1012A31D0AB
:2026A0004146214811F03EFF431C29D058F820001E490A221BF0E4FC204604221B491CF0AA
:2026C000EDFD00203C37BD46BDE8F0830021184810F0AEFC4FF47A7017F0E0FA01203C3795
:2026E000BD46BDE8F0830021124810F0A1FC4FF47A7017F0D3FA01203C37BD46BDE8F083F7
:202700000120ECE7D8F8000008490A221BF0B8FCD2E70026314693E78EF80000BEE700BFFF
:20272000D898FF1FF098FF1F303002000C88FF1FFC2F020018300200D498FF1F2DE9F04109
:202740002E4D2A7800AF0C46431E00F10B0613F8011F09B10132D2B2B342F8D192000A32D0
:2027600022F007020023ADEB020D9E462B701E461A460C30E8460C2310F8011D29B1561C26
:20278000F6B248F822308E463246013BF4D1BEF1000F31D1012A28D04146194811F0C2FE26
:2027A000431C13D058F8200016490A221BF068FC14481BF0CDFB09280CDD201D0222114969
:2027C0001CF06CFD0020BD46BDE8F0810120BD46BDE8F08130232371601D012209491CF02C
:2027E0005DFD0020BD46BDE8F081D8F8000005490A221BF045FCDBE72E70CBE7E598FF1F03
:20280000403002001888FF1F2DE9F0412E4D2A7800AF0C46431E00F11E0613F8011F09B1C8
:202820000132D2B2B342F8D193000A3323F007030022ADEB030D96461F30E8462A7016461D
:202840001F2310F8011D29B1561CF6B248F822308E463246013BF4D1BEF1000F31D1012A52
:2028600028D04146194811F05DFE431C13D058F8200017490A221BF003FC15481BF068FB09
:2028800009280CDDA01D022211491CF007FD0020BD46BDE8F0810120BD46BDE8F08130230D
:2028A000A371E01D01220A491CF0F8FC0020BD46BDE8F081D8F8000005490A221BF0E0FB28
:2028C000DBE72E70CBE700BFF598FF1F543002001488FF1F2DE9F0412F4D2A7800AF0C46D6
:2028E000431E00F1170613F8011F09B10132D2B2B342F8D193000A3323F007030022ADEB68
:20290000030D96461830E8462A701646172310F8011D29B1561CF6B248F822308E4632462D
:2029200013F1FF33F3D2BEF1000F33D1012A2AD041461A4811F0F6FD431C14D058F8200025
:2029400017490A221BF09CFB15481BF001FB09280DDD04F10800022211491CF09FFC002088
:20296000BD46BDE8F0810120BD46BDE8F0813023237204F10900012209491CF08FFC0020F2
:20298000BD46BDE8F081D8F8000005490A221BF077FBD9E72E70C9E7DC98FF1F6430020021
:2029A0000488FF1F2DE9F0412F4D2A7800AF0C46431E00F13B0613F8011F09B10132D2B2D8
:2029C000B342F8D193000A3323F007030022ADEB030D96463C30E8462A7016463B2310F8B0
:2029E000011D29B1561CF6B248F822308E46324613F1FF33F3D2BEF1000F33D1012A2AD005
:202A000041461A4811F08EFD431C14D058F8200017490A221BF034FB15481BF099FA09289C
:202A20000DDD04F10A00022211491CF037FC0020BD46BDE8F0810120BD46BDE8F08130232A
:202A4000A37204F10B00012209491CF027FC0020BD46BDE8F081D8F8000005490A221BF02F
:202A60000FFBD9E72E70C9E7E498FF1F743002000088FF1F2DE9F0412F4D2A7800AF0C46F2
:202A8000431E00F13B0613F8011F09B10132D2B2B342F8D193000A3323F007030022ADEBA2
:202AA000030D96463C30E8462A7016463B2310F8011D29B1561CF6B248F822308E46324644
:202AC00013F1FF33F3D2BEF1000F33D1012A2AD041461A4811F026FD431C14D058F8200054
:202AE00017490A221BF0CCFA15481BF031FA09280DDD04F10C00022211491CF0CFFB002056
:202B0000BD46BDE8F0810120BD46BDE8F0813023237304F10D00012209491CF0BFFB00201C
:202B2000BD46BDE8F081D8F8000005490A221BF0A7FAD9E72E70C9E7F498FF1F8830020014
:202B40000888FF1F10B5014604461322124804F035FD2146042211481CF0A0FB211D0222CD
:202B60000F481CF09BFBA11D02220E481CF096FB04F1080102220C481CF090FB04F10A017A
:202B800002220A481CF08AFB04F10C0102220848BDE810401CF082BB789FFF1F0C88FF1F93
:202BA0001888FF1F1488FF1F0488FF1F0088FF1F0888FF1F194AF0B5111D002412F8013BFF
:202BC000303B092B88BF04709142F7D10023DFF860E0134F134E144D144C19461EF80320AA
:202BE000303A092A88BF0170FA5C303A092A88BF0170F25C303A092A88BF0170EA5C303A82
:202C0000092A88BF0170E25C303A092A03F1010388BF0170022BE1D1F0BD00BF0C88FF1F41
:202C20001488FF1F0488FF1F0088FF1F0888FF1F1888FF1F8B7B2E2B02D0002303707047A0
:202C4000CB7B442B34D0422BF7D10B7C4D2BF4D14B7C502BF1D11A4B2DE9F04101F10E070B
:202C60000546184E18681B79C1F80E000C463B71154803F0D7FF316813482246012304F030
:202C8000FDF8124B1B7A1B0744BF00232B70104B18681B79C4F80E003B710B4803F0C2FF7E
:202CA0002246316808480123BDE8F04104F0E6B80B7C412BC1D14B7C542BBED1704700BF67
:202CC0009C3002002499FF1F789FFF1F709FFF1FA43002002DE9F04782B006461046894623
:202CE0009A46DDF82880294D0CF086FE002701222749284804F000FB00283BD02B780BBBCC
:202D0000FFF714F8D0B1304602ACFFF71BFF012304F8013D2046FFF74DFF2B78D3B19DF83A
:202D200007305BB1B9F1000F1DD1B8F1000F16D0314640461CF068F818B30137154803F04F
:202D400071FFD4E7144B1B7A13F0700F14BF01200020D7E720463146FFF76CFFDFE7DAF82A
:202D600000309F42E9D101240CF086FE204602B0BDE8F08704460CF07FFE204602B0BDE82F
:202D8000F087CAF800700124EEE700BFEC98FF1FF0A3FF1F789FFF1F709FFF1F2DE9F041D5
:202DA000484E86B001200CF027FE3368B3F5FA7F04DB0CF061FE06B0BDE8F081424D434928
:202DC0004348012204F098FA0028F2D02B78002B59D1FEF7ABFF00284DD001A806ACFFF7A8
:202DE000B1FE012304F8153D2046FFF7E3FE2B78002B50D09DF80330002B3CD03768314C6C
:202E0000B7F5FA7F4CDA334B3348D3F800801BF09FF8324B28F817003148D3F8008027687A
:202E20001BF096F82F4B08F807002F48D3F8008027681BF08DF82D4B08F807002C48D3F8D9
:202E4000008027681BF084F82A4B08F807002A48D3F8008027681BF07BF8284B08F807001C
:202E60002748D3F8008027681BF072F8236808F8070001332360164803F0D4FE3368B3F5E5
:202E8000FA7F96DA9BE71F4B1B7A13F0700F14BF012000209FE701A92046FFF7CBFEA9E74D
:202EA0000B4803F0BFFE0CF0E7FD0021164810F0BFF84FF47A7016F0F1FE13F0CFF906B056
:202EC000BDE8F081D898FF1FEC98FF1FF0A3FF1F789FFF1FF098FF1F0C88FF1FF898FF1FC0
:202EE0001888FF1FE898FF1F1488FF1F0099FF1F0488FF1FE098FF1F0088FF1FFC98FF1F6D
:202F00000888FF1F709FFF1FAC3002002DE9F04FDFF8E092A64EA74FB1B0804699F8003088
:202F2000012B00F041814046FFF75CFB002840F03B81A14D2B680024A34201940294039480
:202F4000C8BF4FF0010A03DC14E00134A34211DD33689A4833F814B01AF0FAFF83452B68FB
:202F6000F3D13A68125D30A90A440134A34202F8BDACEDDC414601A8FFF7E0FB0028CDD148
:202F80001F2200210AA81BF049FC2B68002BC8BF002404DC1FE02B680134A3421BDD336845
:202FA000864833F814A01AF0D3FF8245F3D13B68834813F804A01AF0CBFF8245EBD1814BBD
:202FC0001B681B5D30AA1344012203F8992C2B680134A342E3DC41460AA8FFF715FC00280E
:202FE00040F0D7802B680024A34204940594069407940894099404DC28E02B680134A3427A
:2030000024DD33686D4833F814A01AF0A1FF8245F3D13B686A4813F804A01AF099FF8245DE
:20302000EBD1684B68481B6813F804A01AF090FF8245E2D1654B1B681B5D30AA134401222D
:2030400003F8B02C2B680134A342DADC414604A8FFF740FC002840F097803C22002112A829
:203060001BF0DCFB2B68002BC8BF002404DC31E02B680134A3422DDD3368504833F814A04B
:203080001AF066FF8245F3D13B684D4813F804A01AF05EFF8245EBD14A4B4B481B6813F8AF
:2030A00004A01AF055FF8245E2D1484B48481B6813F804A01AF04CFF8245D9D1454B1B6866
:2030C0001B5D30AA1344012203F8782C2B680134A342D1DC414612A8FFF764FC0446002822
:2030E0004DD121A83C2221461BF098FB2B68002B04DC3AE02B680134A34236DD33682F48FC
:2031000033F814A01AF024FF8245F3D13B682C4813F804A01AF01CFF8245EBD1294B2A48C4
:203120001B6813F804A01AF013FF8245E2D1274B27481B6813F804A01AF00AFF8245D9D130
:20314000244B25481B6813F804A01AF001FF8245D0D1224B1B681B5D30AA1344012203F838
:203160003C2C2B680134A342C8DC21A84146FFF781FCA0B11A4B1B78012B3FF66EAF194BA8
:203180001B78012B3FF62EAF174B1B78012B3FF6F7AE164B1B78012B3FF6CCAEBEE6144A92
:2031A00012784AB388F80E0031B0BDE8F08F00BFF098FF1FF898FF1FD898FF1F0C88FF1FA2
:2031C0001888FF1FE898FF1F1488FF1F0099FF1F0488FF1FE098FF1F0088FF1FFC98FF1F8A
:2031E000E498FF1FDC98FF1FF598FF1FE598FF1FEC98FF1FD498FF1F0CF0FEFB144B154A7E
:203200001868C8F80E0008F10E041B792371116811480123424603F031FE104B1A7A120785
:2032200006D503F1080003F0FDFC31B0BDE8F08F0B4A10681279C8F80E00227103F1080011
:2032400003F0F0FC0CF018FC31B0BDE8F08F00BF9C3002002499FF1F789FFF1F709FFF1FB0
:20326000A430020030B583B00D460446FEF7FEFEB8B1204610F008FEFEF77CFDFFF78EFD0E
:20328000154B1B688BB9154A117801B3194614480FF0CEFE4FF47A7016F000FD002003B0E2
:2032A00030BD204610F0B4FCE6E72A689342D8BF03F1FF334FF00001D8BF2B6020462B46E1
:2032C00000910122FFF706FD012003B030BD05480FF0AEFEDEE700BFD898FF1FEC98FF1FD4
:2032E000E0300200D030020070B5194B1A68012A88B01CD004460E46FEF73CFDFFF74EFD53
:20330000C8221146104608F069FC03AD2046FFF7FDFD2146284614221BF0C0FF00953346D0
:20332000204601220021FFF7D5FC08B070BD094B197841B908480FF07BFE4FF47A7016F05D
:20334000ADFC08B070BD002104480FF071FEF4E7D898FF1FEC98FF1FF03002000C31020098
:2033600008B502214FF4FA701AF0F6FD124B012118604FF4FA701AF0EFFD104B0121186034
:203380004FF4FA701AF0E8FD0D4B012118604FF4FA701AF0E1FD0B4B012118604FF4FA706D
:2033A0001AF0DAFD084B012118604FF4FA701AF0D3FD064B186008BDF098FF1FF898FF1FD6
:2033C000E898FF1F0099FF1FE098FF1FFC98FF1F08B50D4B18681AF061FE0C4B18681AF071
:2033E0005DFE0B4B18681AF059FE0A4B18681AF055FE094B18681AF051FE084B1868BDE864
:2034000008401AF04BBE00BFF098FF1FF898FF1FE898FF1F0099FF1FE098FF1FFC98FF1FA1
:2034200010B582B0684607F04BF9BDF80020BDF80200A2F10A039BB2822B08D8A0F10A010A
:20344000462904D82C4B01221A7002B010BDA2F1B40189B282290CD9822B14D98D3A262ABA
:20346000F3D851384E28F0D8234B07221A7002B010BDA0F1A004462C03D81F4B05221A707D
:20348000E3E7822B19D8592809D9962807D81B4C2468012C1DD0184B03221A70D5E782293E
:2034A00003D8A0F10A03462B19D9A0F1A003462BD4D8114B06221A70C7E7A0F15A013C29D2
:2034C00014D80E490968012905D00B4B04221A70BBE78229E9D8A0F10A01462903D8064BEE
:2034E00002221A70B1E7822BDFD9B7E7A0F10A03462BF4D9B2E700BF30A6FF1FD898FF1FCD
:203500002DE9F04FB34B1B7893B0002B78D0B24B1B78012B74D0DFF820B3DFF820A3DFF8F4
:20352000209311F06FF8AD48002411F0DFF80EF0E9FEAB480FF082F878238C222F21CDF8D0
:2035400000B0029401940F200EF068FD78238C222F2102940194CDF800A0A5200EF05EFDB7
:2035600028238C22BC2102940194CDF800900F200EF054FD0EF09EFE07F00CF90028FBD0EE
:20358000002101200EF0D6FE30B1012804D00228F2D113B0BDE8F08FDFF8A882914FB8F8D4
:2035A0000030914E05933B880693337807938F4B8F4C1B7808938F4B8F4D1B6809938F4B31
:2035C00020701B688E480A9301210FF031FDFFF7C7FEFEF7CFFBFFF7E1FB2B682BBB2378B6
:2035E00001214BB987480FF023FD4FF47A7016F055FBFFF7EDFE94E783480FF019FDF4E71D
:20360000012182480FF014FD0CF044FA002882D101217F480FF00CFD4FF47A7016F03EFB9C
:2036200012F01CFE13B0BDE8F08F6B4A79487A4992F80090DFF810C2DFF810E2002202702E
:203640000A70764876498EF80020B9F1010F0DF1480B02700A708CF8002003F1FF3308BF45
:20366000704A4BF8183D08BF82F800904FF0000949465B46CDF8009001220DA8FFF72AFB67
:20368000052016F071FACDF82C90A146664B9DF82C201A700DA8FEF7E9FC002800F0948055
:2036A00099F80030002B40F08F8029680DA810F061FD5D4B1B78013B052B00F2DC80DFE87F
:2036C00003F0757B614D4B030DA8FEF7CFFC002800F0BE8099F80040002C40F0B9800DA825
:2036E00010F0F0FC514B1B785BB307F053F80028FBD1002CCAD00FF011FD012140480FF0EF
:2037000097FCFFF765FEBDF81430A8F80030BDF818303B809DF81C303370344B9DF8202064
:203720001A70344B099A1A60344B0A9A1A600CF009FB0EF053F802223D49052016F098F917
:2037400027E7052016F072FA0028D2D1052016F06DFA0028F5D0CCE70124C3E7002135485A
:203760000FF066FC0C9B002B77D12B68013B0C930B9B009301225B4600210DA8FFF7AAFAF3
:203780000024AFE700212B480FF052FC0B9A009200231A4601210DA8FFF79CFA8246002881
:2037A0005ED00C9B01330C9300249BE759460DA8FFF79AFD002495E759460DA8FFF752FDA1
:2037C00080F00100C4B28DE729680DA810F02CFE6FE700BF04A6FF1F3CA4FF1F4C310200C4
:2037E000AC3D020058A6FF1F26A4FF1F05A6FF1FEC98FF1F30A4FF1FD898FF1FAC9FFF1F86
:2038000070310200D0300200E0300200283102003C310200689FFF1F2EA6FF1FEDA5FF1F60
:2038200026A6FF1FA99FFF1F30A6FF1F7299FF1FCD45000080310200583102006031020038
:2038400068310200FCA5FF1F54A4FF1F1CA6FF1F0DA810F055FD002444E7013B0C9387E779
:2038600001220090034611460DA8FFF733FA5446CDF830A036E7002434E700BF30B583B0BB
:2038800004460D4602F028FC69460A221AF0F8FB6946042220461BF001FD02F00DFC6946AF
:2038A0000A221AF0EDFB02F007FC09286DDC3023237101226946601D1BF0F0FC02F0ECFB75
:2038C0000A2269461AF0DCFB02F0E6FB092856DC3023A37101226946E01D1BF0DFFC02F0E8
:2038E000ABFB0A2269461AF0CBFB02F0A5FB09283EDC302323720122694604F109001BF0D7
:20390000CDFC02F0A9FB0A2269461AF0B9FB02F0A3FB092825DC3023A3720122694604F1BE
:203920000B001BF0BBFC02F0A7FB0A2269461AF0A7FB02F0A1FB092809DC30232373694663
:2039400004F10D003DB31BF0C9FB03B030BD694604F10C00002DF6D102221BF09FFC03B0E5
:2039600030BD0222694604F10A001BF097FCDAE70222694604F108001BF090FCC1E70222F6
:203980006946A01D1BF08AFCA9E702226946201D1BF084FC92E701221BF080FC03B030BD3C
:2039A00038B50A4B0A4C0B491D7902461868C2F80E00957409682046632303F05FFA2046DD
:2039C00042220549BDE8384003F0DCBCA4300200789FFF1F2499FF1FBC32020030B58BB097
:2039E000002836D0027800232F2A8DF804308DF8053022D00246012301A8194903F03EFA9C
:203A000060B19DF8043013F0700F07D001AC0FCC134D0FC50FCC0FC523682B60114A124B3A
:203A20001068127918601A71104B114A19681148632303F023FA0BB030BD4378002BD9D122
:203A4000074803F0EFF80C4901F23C4003F070FAE4E7044A094B1068127918601A71E3E7DF
:203A6000F0A3FF1FD03102000DA6FF1F2499FF1F08A6FF1F789FFF1FB49FFF1F16A6FF1F9A
:203A800030B504468BB000200BF0B6FF20460121FFF7F4FE00250123224601A81A498DF83A
:203AA00004508DF8055003F08FF923788DF804502F2B8DF8055017D022460123124901A83E
:203AC00003F0DCF960B19DF8043013F0700F07D001AC0FCC0C4D0FC50FCC0FC523682B6071
:203AE0000BF0CAFF0BB030BD6378002BE4D1064803F098F8054901F23C4003F019FA0BF010
:203B0000BBFF0BB030BD00BFF0A3FF1FB49FFF1F38B50BF0BFFF002834D00DF037FEB0F5B9
:203B20007A7F4FF0000122D33848FFF7A7FE0FF061FA4FF0FF3008F0A3FB354809F02AF945
:203B4000344B1B7813B1344B1D7875B3334B1B781BBB6E2242F20E71314808F043FF314BFA
:203B6000314803221A70BDE8384009F013B92F480FF05EFA4FF47A7016F090F8294B00221C
:203B80001A7038BD01462A480FF052FA0BF082FF0028FBD00CF070FBBFE70023462242F267
:203BA0000E711F4808F01EFFD9E702200CF016FA0028CBD0194C2378D3B12B46462242F2C8
:203BC0000E711C4808F00EFF4FF47A7016F066F809F058FF237893B10023AA2242F20E719B
:203BE0000F4808F0FFFE0021012009F0CFFFB6E75A2242F20E710F4808F0F4FEE4E78222F4
:203C000042F20E71064808F0EDFEECE708A6FF1FAC3D02003BA6FF1F3DA4FF1F35A4FF1F41
:203C20001032020034A4FF1F90490200F0310200D831020004320200F0B51B4C1B4B1C4A31
:203C40001C4DA4FB0174A409A3FB0176A3FB04CEA2FB0172F6084FEADE0EB7B252090EEBC5
:203C60008E0EA4EB4E04A3FB02CEA3FB07C34FEADE0EDB08A5FB01C506EB86060EEB8E0E71
:203C800003EB83036D0BA2EB4E02A7EB4303A1EB4601303530343032303330310570447098
:203CA0008270C3700171F0BDD34D6210CDCCCCCC1F85EB515917B7D1F0B50C468BB00746A6
:203CC00000200BF099FE227800232F2A8DF804308DF8053041D001AE224630460123254979
:203CE00003F0CCF860B19DF8043013F0700F07D035460FCD1F4C0FC40FCD0FC42B68236080
:203D00001D4B1E4819681E4D3A46632303F0B6F842221C49194803F035FB00242B681748DF
:203D20001B5B8DF804300122314603F02BFB2B6812481B5B01221B0A02340DF103018DF839
:203D4000033003F01FFBB4F5164FE7D10B4802F069FF0BF091FE0BB0F0BD6378002BBAD12D
:203D6000044802F05FFF084901F23C4003F0E0F801AEC5E7F0A3FF1F2499FF1F789FFF1F00
:203D8000F0A5FF1F8C310200B49FFF1F2DE9F04F7F4B8046894693E807008FB003AB03C357
:203DA0001A80C8221146104607F018FFC8221146104608F04BFA774808F0ECFF1F2008F017
:203DC0002FFA00231E2242F20E71734808F00AFE724808F0DFFF002008F022FA0023502290
:203DE00042F20E716E4808F0FDFD0023782242F20E716C4808F0F6FD434600226A4906A84D
:203E00001AF068FF002306A8A02242F20E7108F0E9FD4A46654906A81AF05CFF0023C822AF
:203E200006A842F20E7108F0DDFD614A0323B8F1000F137040F3A1805D4B1B78032B40F056
:203E40009C805C4B5C4F1A681B7900920193DFF888A15A4D002433E00120FDF743FC97F8F7
:203E600000B03E700FF0E0FDDAF800009AF80430CDF81100494603A88DF8153087F800B067
:203E8000FFF71AFFC8221146104608F0DFF9434808F080FF304608F0C3F943462246424904
:203EA00006A81AF017FF3346A02242F20E7106A808F098FDA04560D03D4B1B78032B5CD180
:203EC000A3B2A5FB03123E49A1FB031C3D49D20890B2A1FB03164FEA561EA5FB0061C908C0
:203EE000394E4FEA9C1C02EB820201EB8101A0EB4101A3EB4202A6FB0363A5FB0C06F60815
:203F000006EB8600ACEB4000A5FB0EC6F6085B0B06EB8606AEEB4606303103F1300E303026
:203F2000009BCDF8113030329DF804308DF80F108DF80D003036494603A88DF815308DF890
:203F400010208DF80CE08DF80E60FEF73BF91F4B1B78022B0BD0012B0CD01D4B1B78002676
:203F60000134002B3FF478AFFDF796FC74E7FCF7F9FEF2E7FCF7AEFEEFE7002115480FF0F1
:203F800057F84FF47A7015F089FE0FB0BDE8F08FB0320200AC3D0200183202009049020040
:203FA0002C320200503202007432020090320200B09FFF1F9C300200A99FFF1FCDCCCCCCDF
:203FC000D34D62101F85EB515917B7D19C9FFF1FEDA5FF1FA0320200A43002002DE9F04F6F
:203FE000814693B000200D4616460BF005FDB9F1000F00F00481C04BC0491868C5F80E005E
:204000001B79AB742A460968BD48632302F036FF0DF118080DF12409BA4BDFF834A31B78CB
:2040200003F0FD03012B00F09781002707F5A0763C46DAF80030B2481D5B01222B0A0DF1D4
:2040400005018DF80530043403F09CF9012201A9AB488DF8045003F095F9A642E9D107F528
:204060002077B7F5164FE1D1A74DA5482B88A74C12A91B0A01F83D3D012203F083F912A9BF
:204080002B8801F83E3D01229D4803F07BF923889B4812A91B0A01F83F3D012203F072F926
:2040A00012A9238801F8403D0122954803F06AF9974B484619680BF093FC4D460AAC4E4676
:2040C00016F8013B8E488DF80C30012203A903F059F9B442F4D18F4B89481B7812A9012214
:2040E00001F8393D03F04EF98B4B85481B7812A9012201F83A3D03F045F9884B80481B7834
:2041000012A9012201F83B3D03F03CF9844B1B78002B6AD112A9012201F8383D784803F061
:2041200031F9804B76481B7812A9012201F8363D03F028F97C4B484619680BF051FC4E4629
:2041400016F8013B6E488DF8133001220DF1130103F018F9B442F3D1744B484619680BF0DB
:204160003FFC15F8013B66488DF81430012205A903F008F9AC42F4D16D4CA51C04F5C07623
:2041800035F8023C5E481B0A012241468DF8183003F0F8F835F8023C59488DF81730012294
:2041A0000DF1170103F0EEF8638855481B0A01220DF116018DF81630043403F0E3F834F82E
:2041C000023C4F488DF8153001220DF1150103F0D9F8A64205F10405D2D1494802F022FD19
:2041E0000BF04AFC13B0BDE8F08F524B44481B7812A9012201F8373D03F0C4F891E74E4BD0
:20420000DFF850C14D4C4E4A8DF82490A3FB0617FF08ACFB06ECA4FB06E41FFA87FE4FEA91
:204220009C1B4FEA541AA3FB0EC4E40807CA04EB8404AEEB440EA3FB0B4CA3FB0A43DC08CD
:204240000DF118083F4B8DF825904FEADC0CC146A9E8030007EB8707A3FB06130CEB8C0CFA
:2042600004EB84042978A9F80020A6EB4707ABEB4C0CAAEB44045B0B30370EF1300E0CF1B4
:20428000300C303430332F298DF81C708DF81BE08DF819C08DF81A408DF818301DD00DF13D
:2042A00024092A4648460123274902F0E7FD60B19DF8243013F0700F07D04D460FCD224C39
:2042C0000FC40FCD0FC42B6823600C4B0C4819684246632302F0D2FD9EE66B78002BDED10A
:2042E000194802F09FFC194901F23C4002F020FE0DF12409E9E700BF9C3002002499FF1F8C
:20430000789FFF1F26A4FF1FFCA5FF1F58A6FF1F38A4FF1FEEA5FF1FFFA5FF1F35A4FF1F41
:2043200005A6FF1FEDA5FF1F30A4FF1FAC9FFF1F68A4FF1F25A6FF1FCDCCCCCC1F85EB5185
:20434000B03202005917B7D1F0A3FF1FB49FFF1FF0A5FF1FD34D62100024DAF800300D489F
:204360001B5B01221B0A0DF107018DF8073003F009F8DAF8003007481B5B8DF80630023411
:2043800001220DF1060102F0FDFFB4F5164FE4D16AE600BF789FFF1F2DE9F04F044683B02E
:2043A00000200BF029FB2046FFF7FAFA404B1B780121002B48D14FF4A07019F0CDFD49F289
:2043C000BE4A814600F5A0773A4B19684B46514431F8022F1A70120A5A7002339F42F7D12E
:2043E0004FF004084C46267865784FF0040B01220DF1070130488DF8076002F0C3FF0122B3
:204400000DF106012C488DF8065002F0BBFF0BF1FF3313F0FF0BEAD10234BC42E3D108F1C5
:20442000FF3818F0FF08DDD1AAF5A07A1AF5A17FCAD1484619F032FE1F4802F0F3FB0BF0FC
:204440001BFB03B0BDE8F08F4FF4A06019F084FD1A4CDFF870801A4F0546461CD8F800206F
:2044600004F5207302EB030E1119334631F8022FD0B28E454FEA122203F8010C58701A7099
:204480009A7003F10403F1D14FF4A06229460A4802F078FFA4F520744FF4A06229460648B7
:2044A00002F070FFBC42D9D1284619F0F7FDC3E73CA4FF1FF0A5FF1F789FFF1F7E55020023
:2044C0007EFDFFFFF8A5FF1F08B5094B1B7853B9084B1B78013B012B05D90DF07FF9064B06
:2044E00000221A7008BD0548FFF756FFF5E700BFA89FFF1F3DA4FF1F34A4FF1F08A6FF1FF2
:204500002DE9F0412B4B2C4F1B7884B00BB93B7893B13A78284B022A33D01A78032A02D0FC
:2045200004B0BDE8F08101221A700BF0B9FD0028FBD104B0BDE8F081204B1B78002BE8D1B3
:20454000DFF8848098F80030002BE2D11C4B1B78002BDED11B4D2B6802930A20029E15F0AF
:204560009DFB2B680193019CA41B0BF099FDC8B1B4F57A7F0EDD01233B703A780E4B022A83
:20458000CBD103221A700BF08BFD0028FBD104B0BDE8F0812B680393039CA41B0BF080FD90
:2045A0000028E5D1B4F57A7FE5DA022388F80030AFE700BFECA5FF1FB09FFF1F38A6FF1F7A
:2045C0002CA4FF1F80A6FF1F34A4FF1F2DE9F0412B4D2B7886B0002B38D12A4B1B78002BB4
:2045E00034D1294E3378002B30D1284B1B786BBB274B1B7853BBDFF8A480D8F80030049397
:204600000A20049F15F04AFBD8F80020214B0592059C1B78E41B43B923E0B4F57A7F08DCD8
:20462000D8F800300393039CE41B06F0B3F80028F3D1D8F800300193019BDB1BB3F57A7FF2
:2046400015DA2B780E4A0BB90123137006B0BDE8F081B4F57A7FECDCD8F800300293029C9C
:20466000E41B052015F0E2FA0028E2D1F1E70A4B1B78012BEAD00123337006B0BDE8F08121
:20468000ECA5FF1FB09FFF1F38A6FF1F34A4FF1F2CA4FF1F7299FF1F3DA4FF1F80A6FF1FB2
:2046A0003C4B1B7810B56BB13B4C2078A8BB0CF0B7FB3A480EF0E6FC01232370384B002211
:2046C0001A7010BDA42014F049FE0446A8B9782014F044FEC82849D09E2014F03FFEC828F3
:2046E00053D0A32014F03AFEC82835D02D480EF0C9FC2B4B00221A7010BD012819D0022840
:2047000025D0032837D02146A42014F041FE0BF0E3FD234B00221A7010BD23480EF0B2FC2B
:204720000023012023700CF07BFB1D4B00221A7010BD9E2014F012FEC82826D0A32014F0D0
:204740000DFEC82808D017480EF09CFCDBE7A32014F004FEC82804D114480EF093FC032431
:20476000D1E7782014F0FAFDC828ECD110480EF089FC0124C7E7782014F0F0FDC828F5D055
:204780009E2014F0EBFDC828DDD10A480EF07AFC0224B8E7FEA5FF1F01A6FF1F103302007B
:2047A00038A6FF1F5C330200003302004833020020330200343302002DE9F04FBA4FDFF8C7
:2047C0000C833B78012B89B0B8F9003000F05981002BB8BF03339B10C3F1780303EBD373A1
:2047E0005D10C5F17805EDB2DFF8E49299F8003043B3AE4B1B78022B24D0AD4BAD4AB3F92E
:204800000000AD4B02921446039319F025F9FBF783FE0646208819F01FF90446304619F0A4
:204820001BF9214619F062F8A34B0646188819F013F9214619F05AF80146304619F014FA15
:20484000009005E0002300939A4B02939A4B0393B8F900B0BBF1010F75DD0024DFF874A2B8
:20486000264627E0012B5CD0DAF8001004EB44028B18885C8DF8150059788DF816109A78A7
:204880008DF8172007F0B8FC3B78012BA5EB060318BF5B0019464FF49D724FF4957007F017
:2048A00059F80136F6B2B8F900B001340BF1FF33A34248DD3B78012B14BF0421022194FB71
:2048C000F1F301FB1343002BEDD199F80030022BC8D1204619F0C0F80190584619F0BCF81F
:2048E000009919F00DF9019B0146184619F0BAFA0028B9D0714B1B78002BB5D06B4B1B7819
:20490000022BB1D00DF117020DF116010DF11500FCF7BAFE9DF815009DF816109DF81720CE
:20492000B0E7204619F098F80190584619F094F8009919F0E5F8019B0146184619F088FAD2
:204940000028D7D190E70EF055FB029B1888FBF799FD039B04461888FBF794FD214606463F
:2049600018F0C4FF564919F07FF93B780021012B8146204614BF4FF0020A4FF0010A19F0AE
:2049800071FA4FF07C51002800F08780204618F0AFFF19F091FA024605FB0AF549494A4F5F
:2049A00006A8053D1AF096F92A4606A800234FF4877108F017F84FF0020A504619F04CF8BD
:2049C000494619F09DF8214618F092FF0021834619F048FA4FF07C51002840D0584618F08B
:2049E00087FF19F069FA0246364906A81AF072F9B8F9002087FB0213A3EBE27212B20AFBC8
:204A0000125200234FF4877106A807F0EBFFBAF1010AD2D10021304619F024FA40B34FF0FC
:204A20007C51304618F064FF19F046FA0246254906A81AF04FF9B8F90020234B83FB0213F7
:204A4000A3EBE2734FF6FD7213FB025206A800234FF4877107F0C6FF09B0BDE8F08F4FF079
:204A60007C51584618F042FF19F026FA0246BBE74FF07C51304618F039FF19F01DFA024645
:204A8000D5E703EBD3735D10C5F1F00505EBD5756D106D42103DEDB2A6E6204618F026FF9D
:204AA00019F00AFA024677E73CA4FF1F3DA4FF1F2CA6FF1FFCA5FF1F58A6FF1F05A6FF1FB2
:204AC000000040406C330200ABAAAA2AEAA5FF1F26A6FF1F28A6FF1F0378082B59D8DFE863
:204AE00003F00E463D4F172029350500384B1A78002A59D1012119707F2014F049BC354A0E
:204B0000137883F0010319466B20137014F040BC314A137883F0010319466A20137014F039
:204B200037BC2E4A137883F0010319466F20137014F02EBC2A4B1A78022A43D0012A0CBF6D
:204B4000002102211970732014F022BC254A137803BB01211170722014F01ABC224A137855
:204B600083F0010319466D20137014F011BC1F4A137883F0010319466C20137014F008BCDD
:204B80001B4A137883F0010319466920137014F0FFBB7047012B12D0022B16D0032B0CBFB4
:204BA000042100211170D6E7012A05D0022A0CBF0321002119709FE7022119709CE70221D4
:204BC0001170C8E701211970BDE703211170C2E7EDA5FF1F54A4FF1F25A6FF1F2EA6FF1F67
:204BE0009C9FFF1F6C9FFF1F1CA6FF1F689FFF1F35A4FF1F4D4B1B78122B11D8DFE803F02C
:204C000011181F262D343C434A525961686F777F878F0A00464A474B47491160E0221A8044
:204C20007047434A434B45491160F0221A8070473F4A404B42491160E0221A8070473C4A57
:204C40003C4B40491160C0221A807047384A394B3D491160E0221A807047354A354B3B49CD
:204C60001160E0221A807047314A324B384911604FF480721A8070472D4A2E4B3549116021
:204C8000E0221A8070472A4A2A4B33491160E0221A807047264A274B304911604FF4807297
:204CA0001A807047224A234B2D491160E0221A8070471F4A1F4B2B4911604FF480721A8008
:204CC00070471B4A1B4B28491160F0221A807047174A184B25491160E0221A807047144AB9
:204CE000144B234911604FF480721A807047104A104B204911604FF480721A8070470C4A87
:204D00000C4B1D4911604FF480721A807047084A084B1A4911604FF480721A807047044A92
:204D2000044B17491160E0221A807047EEA5FF1F28A6FF1FEAA5FF1F380C0300181703003D
:204D400098090300F82D0300B8FE020058220300E819030058010300F8060300F8030300F3
:204D6000D80E030018140300881F0300E81C030038300300F8240300F8270300F82A030099
:204D80007811030010B5054C03782370FFF732FF21786620BDE8104014F0FABAEEA5FF1FBF
:204DA00010B50C4C237813B90B4B1B7823B12378084A032B0AD010BD084B1B78002BF6D118
:204DC0000BF05AFA2378034A032BF4D10123137010BD00BF34A4FF1FECA5FF1FB09FFF1F64
:204DE00008B5114B1B7813B1104B1B78BBB1FFF701FF0F4B1B780BB108F098FE03220D4941
:204E0000022014F035FE02220B49052014F030FE0A4B00221A70BDE80840FCF77FBB01212D
:204E2000042014F0FDFEE2E7E9A5FF1F3CA4FF1F3DA4FF1F01450000CD450000ECA5FF1FD6
:204E400080B5FFF7CDFFDFF8A880254C254F264E264DDFF8A0900AF0A3FD0BF097FB98F8D2
:204E60000030012B21D02378022B23D0387830BBFCF784FD0EF0D8FDFFF792FF2378012BFA
:204E800026D03378012B28D02B78002BE3D099F80030012BDFD1FFF703FC0AF081FD0BF0C7
:204EA00075FB98F80030012BDDD111F0D7F92378022BDBD1FEF72CFE38780028D8D0FCF711
:204EC000C1FD0EF0B1FDFFF76BFF2378012BD8D1FFF7FAFA3378012BD6D113F067FBD3E711
:204EE00034A4FF1F3DA4FF1FB09FFF1F38A6FF1FECA5FF1F05A6FF1F14F0E8B92DE9F047EA
:204F00004768047B3A7882464FF0000800680E4645464FF0FF0984B1C4F3470314424FEA4F
:204F2000450518D11C46013E002EF4D18AF80C408AE881002846BDE8F087A8B10137013895
:204F4000B8F1000F0AD03B7813BB984687F800906D004023FF2201351C46E4E73A78FF2A22
:204F600011D040238024D9E7DAF80870DAF8743039464FF40072504698470028DFD16FF0E9
:204F80000100BDE8F0874FF00108002EC3D1CDE76FF00500BDE8F0872DE9F84F0746D0F844
:204FA0000480007B98F800C0D7F800E04FF000098A4614461D464E464FF0100BF8B1C0F3D4
:204FC000470210EA0C0F4FEA46062DD110469AF800306BB121888E4204F1020404D126E06D
:204FE00034F8021B8E4222D0013B05F10105F7D1BBF1010B3DD00AF1010A0028DFD170464D
:2050000030B308F101080138B9F1000F17D098F8003086466BBB4FF0FF3288F8002076009A
:20502000994640224FF0FF0C01361046CFE73A73C7F800E0C7F804802878BDE8F88F98F8B7
:2050400000C0BCF1FF0F11D0864640228020B8E7D7F808807B6F41464FF4007238469847AD
:205060000028D0D16FF00100BDE8F88F4FF00109C6E76FF00500BDE8F88F00BF002A35D067
:205080002DE9F04F87B00025109EC266B3F5007F03674167866745834562456345648562BC
:2050A00085638564C562C563C56405630564056545658565C565056613D39246A3F500737A
:2050C00002F500720C46C2660367C0F808A0022251468346A04702280AD0022007B0BDE836
:2050E000F08F8560032007B0BDE8F08F052070479AF800209AF8013043EA02231BB2283383
:2051000001D00620EAE7804C0090DBF8743004225146584698470428DFD19AF802609AF858
:2051200003109AF800209AF8013041EA0626022E43EA0223E5D91A0AFF2AE2D10099DBB22A
:20514000B21C1144C03B0091B51E1D2B00F2AE81DFE813F020001E001E001E00DE001E0024
:205160001E001E00AC011E001E001E00AC011E001E001E00AC01AC01AC01AC01AC01AC01D7
:20518000AC01AC01AC011E00D4007E00AC0169000820A3E7B5F5007F00F2B480DBF874300A
:2051A0002A46514658469847854296D19AF803209AF8043043EA0223CBF81C309AF80120AE
:2051C0009AF8023043EA0223CBF820309AF80530032BDDD15346012101290BF11000DA79BF
:2051E0000ED0112AD4D11A7A032AD1D8032902708BD003330131012900F10100DA79F0D1F6
:20520000112A4FEA121602F00F05A2F1210701D0012FBDD88BF80E608BF80F501A7A032A07
:20522000B6D80270E5E7B5F5007F6BD8DBF874302A4651465846984785427FF44EAF9AF872
:2052400000209AF8013043EA0223ABF81A305CE7B5F5007F56D8DBF874302A465146584676
:20526000984785427FF439AF402D7FF64AAF9AF8003013F0F00FA6F1430E0AF1010C7FF42B
:2052800040AFDBF87020FF2A03F003037FF62AAFDBF86C60A2F5807206F58071CBF87020E5
:2052A000CBF86C10002E3FF41DAF0BEB8303174D5E650CF1400762464FF40053002103E059
:2052C00015F8011F34F8113012F8010B03FB00F3974246F82130F3D1BEF1000F3FF415AF4C
:2052E000BEF1400F7FF60DAF0CF1410C1CF8013C13F0F00FAEF1410EC3D002E7B5F5007F4F
:2053000040F2DE800420E9E6B033020070330200B5F5007FF6D8DBF874302A46514658466D
:20532000984785427FF4D9AE102D7FF6EAAE9AF80030A6F11302029213F0EE0F4FEA131223
:20534000164603F00F000AF101027FF4DAAEDBF870100F297FF6C6AEDBF86C30103903F1D6
:205360001005CBF87010CBF86C50002B3FF4BAAECDF804B0CDF814A0B34601990BEB4000D5
:2053800001EB800103F1FF3E03914B62704602F1100C4FF0000812F8011B00F8011F94450B
:2053A0008844F8D101984FEA48070337026F27F0030797423FF696AED21BD0F86C900492D2
:2053C0001546014602464F441567CF66B9F1000F3FF488AE039A0021C2F8349003F10F0A34
:2053E0000E461EF8013F5D1E7BB109EB46021E4409EB46000B4622F8023B013382429BB297
:20540000F9D1013115FA81F189B24900F24589B2E7D1029B4345FFF474AE08F1030304998B
:2054200023F003039942FFF45DAE0198CA1A3B440267C366002F3FF455AE039B5F64B8F17D
:20544000000F0CD007EB080259461CF8013B11B90B2B3FF656AE07F8013B9742F5D1029BC6
:20546000B3EB080800F0A380B8F1100F7FF649AE9CF80030A8F1110213F0EE0F02924FEAFA
:20548000131B0CF1010203F00F007FF43AAE019F396F0F297FF626AEFB6E103903F11005FD
:2054A0003967FD66002B7FF468AF1BE6DBF874302A4600215846984785423FF426AE0CE6EE
:2054C000DBF874302A4651465846984785427FF404AEDBF81C30002B3FF413AEDBF8203084
:2054E000002B3FF40EAE9AF80030032B7FF450AE0BF10F040023581C1AF8102012B1112A4B
:205500007FF446AE003318BF01231A1D0BEBC2020BEBC30152680346002A3FF4F2AD8A6A58
:20552000002A3FF4EEAD14F8012F0BEB8202526D002A3FF4E6AD0328DDD19BF80F209BF8E0
:205540000E3012FB03F2002A3FF4DBADD3014033FF2BDBF8701098BF4FF480738B422BD805
:20556000DBF86C40CBF86440C91A2344CBF87010CBF86C30002C3FF4B5AD92018032914280
:205580002CD3891A1A44CBF87010CBF86C20CBF86830002B3FF4A6AD009BC3F308040023ED
:2055A0008BE808048BF80C3054B9002096E5DDF804B0DDF814A0A8E50023CBF864308DE57A
:2055C000DBF87430C4F500720AEB040158469847631E53448BE8090000207FE50023CBF8B4
:2055E00068307BE50AB1052070472DE9F04F9BB0837B046A1493C37B42738282C2820283A9
:205600001793002C00F0F582C369DFF84C9415910490109216921392002B00F0DF820023A2
:205620000D93049B5B8B3BB113990A4601328B4292B200F007831392049CA17BE27BA36ED0
:20564000606E0A9011FB02F2911C0F9203F10808C2F10102002311910E920C930F9B0C9A86
:20566000934240F22E8300252E46049BED00591918464A6B4B6C496AFFF78EFC041EC0F20A
:205680000C83049B03EB460ABAF9147040F0C88204990A980E440346327C01EB82020146AE
:2056A000D2F854A0DAF8002002FB07F212120260FC31002243F8042F9942FBD1049ACDF8F7
:2056C000048015440124AF6AAE6BAD6C934602E00134402C30D02B46324639465846FFF725
:2056E0005BFC002828D0C0F29082030903D01C443F2C00F2C18210F00F08E9D0414658469B
:20570000FFF7FCFB08F1FF330122002802FA03F3C0F27B82184202D15B00013BC01ACD4BCF
:205720000A991A5D5AF82230013403FB00F31B12402C41F82230CED10A9DDDF80480CDF8FD
:2057400048802B46DC331846069305F13C0308932B467C33019305F1BC03079305F19C03A2
:2057600003932B465C3305F11C0B029305F12003CDF814B00B938246069B029A53F8047FCE
:205780000693059BD5F800C053F8044F0593039B53F804EF039352F8043F0292089A52F88E
:2057A000048F0892079A52F8046F0792019A52F8041F0192C3EB0E00E21B09913C4441F620
:2057C0009051171801FB07F742F6CF11734401FB00F041F2511104EB030E3F13E31A01FB24
:2057E00002F2C6EB08044FF4B551A7EB203001FB03F301FB04F409994644CEEB0000C0EB57
:2058000023330CEB0108C6EB2434C1EB0C01A7EB223201EB040CC6EB0807D21A0C1BB044C7
:20582000B91808EB0E06BA1ACEEB08080CEB000704EB030EC0EB0C00E41A2E604AF8048FDD
:205840004BF8047F2966C5F88020C5F8C000C5F840E0C5F8A0400B9B04359D428CD1DDF8AF
:20586000488008F1400301934FF4B55C01E055F8046C55F80CEC55F81C4C55F8141C55F8DA
:2058800018BC55F8087C55F810ACC1EB0E00A21B41F690533444161803FB06F642F6CF130F
:2058A00003FB00F041F251133613714403FB02F255F8203C04EB010EA6EB2030611AC7EBBE
:2058C0000B04CEEB00005F4403F500430CFB01F10CFB04F403EB0A0BC0EB2131CAEB03036F
:2058E000C7EB2434A6EB2232521AC7EB0B065F44C4EB030B1C4406EB020A0BEB0103B21A07
:205900002618241A07EB0E00CEEB0707C3F30923C1EB0B01C7F30927CAF3092AC2F30922F0
:20592000C1F30921C6F30926C4F30924C0F3092019F803E019F8073008F8013C19F80AA0AD
:2059400019F8022019F8011019F8066019F8044019F80000019B08F805AC08F8042C08F898
:2059600006EC08F8031C08F8076C08F8024C08F8080C08F10808434505F120057FF477AFFC
:205980000E9A0C9BDDF8048001320E92119A013393420C937FF462AE049A536E92F80EE0DF
:2059A000D17B0393049B0D98DB694FEACE0E0EEB00029A4284BF02469B1A4FEAC1010591C0
:2059C00088BF0793049B109905981B6A98BFCDF81CE042189A4284BF0A469B1ABDF83420DD
:2059E000079898BF059B0893511EBDF84030ADF860200144ADF862100899ADF864305A1E0F
:205A0000059B0A44ADF86620002B00F039814FEACE0302930EEB4E0306930023019340F22D
:205A20009B5B4FF4B07A40F2DB2840F2167C049B9D6E019B05EBC307059B102B00F0DB80E4
:205A4000029B1D44BEF1000F54D0039B0026DC1C3AE000BF70330200303402000135394611
:205A60000BFB03F008FB03F30AFB0233002809780CFB02F2B8BF00F2FF30002BB8BF03F227
:205A8000FF33002AA1EBA323B8BF02F2FF3201EBA020C3F3090301EBA221C0F30900C1F32F
:205AA000090119F8033004F8023C013619F8000019F8013004F8030CB64504F8013C07F19D
:205AC000010704F1030411D02A7895F84030BEF1100FA2F18002A3F18003BFD1082E06F08C
:205AE000010108BF38370D443946B9E7039B069A13440393029A019B08320292059A0133FA
:205B00009A42019393D1049B596E049B079A5B7B2EFA03FE72452ED2089C64B3C2EB0E00DF
:205B200002F1010C00EB40000CEB4C0C8246ACF1030E0E460027A0461046B0B1F31CCA1C68
:205B400006EB0C0512F8034C03F8034C12F8024C03F8024C12F8014C03F8014C0333AB423D
:205B600002F10302EED1764471440137B8455144E3D1049B596E089D079B05FB03F50135A6
:205B800005EB45050D44CC1C0E4614F8032C14F8023C14F8010C02F0F802120203F0FC03AE
:205BA00042EAC303033443EAD003AC4226F8023BEBD1049C159B18AA2046984700286FD0F9
:205BC00008221146BDF850000D9AE36911FB002293420D923FF625AD049A146ABDF85C0076
:205BE00008221146109A11FB0022944210923FF613AD002041E0019A53082033072A05EB34
:205C0000C3057FF61FAF40371CE74042C0B2002833D1049A536E92F80EE0D17B0393C1E67F
:205C200021461846FFF76AF90028EEDB013C0123A340184202D15B00013BC01A0744AAF886
:205C4000147025E5049F97E8410002250024C8B101363378013D43EA042400F1FF30A4B2A4
:205C6000F5D124F0270304999BB24FF6D07293424E6008600D7317D006201BB0BDE8F08F48
:205C8000039942E7BE687B6F31464FF40072384698470028DDD10220EFE76042C0B2B6E727
:205CA00001201BB0BDE8F08F169B5C406207E3D101339BB2169301238D82CD820D83139388
:205CC000BAE40E9E351C18BF0125CEE4664A674B2DE9F04F664EDFF8A8A1664CDFF898814D
:205CE000A2FB0052170C07F1040EA3FB0025A6FB00626D09AEFB0AABD20AA3FB0563A4FB6D
:205D00000264CBEB0E060BEB56065B09B6082409C6EBC606C3EB0313A5EB830304EB440424
:205D2000C5EB0515C6EB0E06A0EB8500A2EBC402013600258A7008704B70CE702A4640F208
:205D40006D1A4FF0640C4FF4C8790EE0CBEBE01009FB103084BB002814BF50464FF4B77077
:205D60000244974205F1010514D3EEB206F2B27388FB03404FEAE37BCBEB601413F0030EC9
:205D80000CFB1434E2D040F26D100244974205F10105EAD28E71BEF1000F10D136484FEA27
:205DA000E37B80FB0340CBEB6014642505FB143484B34FF4B77506E04FF4B770D0E740F2ED
:205DC0006D154FEAE37B2C4C2C4884FB0364CBEB641C521BCBEBE41B64254FF4C87404FB79
:205DE0001B3B05FB1C3CBA1A0124002302E00134E4B20133012BDEB220D01D5C954216D80E
:205E00000C2CA2EB0502F2D10D2601320A714E71BDE8F08FCBEBE0104FF4C87404FB1030CB
:205E2000002840F26D1508BF4FF4B775CBE70136F6B201320A714E71BDE8F08FBEF1000F70
:205E40000BD1BCF1000F0AD1BBF1000F14BF1C251D25AA4205D3521BC9E71C25F9E71D257A
:205E6000F7E70226D1E700BF07452EC289888888C5B3A291ABAAAAAA1F85EB5130380200AA
:205E80002549922410B503490446FFF71FFF024B1C6010BD0899FF1F0499FF1F2DE9F04118
:205EA0003949867901FB06F106B306F2B27C40F2B373DFF8D8E064274FF4C8780DE013F0AA
:205EC000030F09D1C2EBE51208FB123204B91AB901F5A83101F5C07101338EFB0325DA178F
:205EE000C2EB65149C4507FB1434E8D14779012F2FDD264C264ADFF89CE006F2B27384FBCB
:205F00000346DC17C4EB661C6425C4EBE6164FF4C87405FB1C3C04FB163603F0030501239F
:205F200007E014780133BB420EFB041102F101020FD0022BF5D1002DF3D1BCF1000F1BD03F
:205F400001F5181101F56E510133BB4202F10102EFD143788578047802790E48C3EB0313BD
:205F60004FF461669B0006FB05332344013A00FB02300844BDE8F081002ED2D101F5181122
:205F800001F56E51E0E700BF8033E1011F85EB513038020080510100F0B5204C204E23680B
:205FA0003268204D83B028680093009B9B1AB3F57A7F0FD3013000E0084623680093009B99
:205FC00002F57A729B1AB3F57A7F00F10101F3D228603260144F3B6898420FD3134B1B6813
:205FE00063B19847124B58B912491A680B7828680033024418BF01233A600B7003B0F0BD67
:20600000226801921B680B4A019C28600344022134603B60117003B0F0BD00BF80A6FF1FE9
:206020001C99FF1F1099FF1F2099FF1F1899FF1F1C88FF1F1499FF1F08B5FFF7ADFF044BE5
:206040001B68984201D0FFF71DFF024B987808BD0499FF1F0899FF1F08B5FFF79DFF044BC6
:206060001B68984201D0FFF70DFF024B587808BD0499FF1F0899FF1F08B5FFF78DFF044B06
:206080001B68984201D0FFF7FDFE024B187808BD0499FF1F0899FF1F08B5FFF77DFF044B47
:2060A0001B68984201D0FFF7EDFE024B187908BD0499FF1F0899FF1F08B5FFF76DFF044B46
:2060C0001B68984201D0FFF7DDFE024B587908BD0499FF1F0899FF1F08B5FFF75DFF054B05
:2060E0001B68984201D0FFF7CDFE034B987900F2B27008BD0499FF1F0899FF1FF0B583B027
:206100000746099C089E632CCCBFA4F2B27504F11E050E4C2046A57166712371A7706170CF
:206120002270FFF7BBFE0A4B0A4A1B6812680193094E0A4D0A490B4B019C306010440222E8
:2061400028600C601A7003B0F0BD00BF0899FF1F80A6FF1F1C88FF1F1099FF1F2099FF1F3F
:206160001C99FF1F1499FF1F0349044A044B096811601860FFF710BF1099FF1F2099FF1FDB
:206180001899FF1F10B501210446407913F048FD11490A684FF00040FF23D0625363D36A6C
:2061A000002BFCDACB7A926B0B481A468BB113F0010F03D0094A806910601A46980703D544
:2061C000074BC869CA7A1860530702D5054B0A6A1A600023237110BD2088FF1F00E100E006
:2061E00004E100E008E100E070B5324BC279D97A0446E9B172B6D97ACE07084606D52E4D09
:20620000D8682E6830409861286008468D0706D52A4D19692E68D87A3140D961296041079D
:2062200005D527485969056829401962016062B61B682449D868884206D0234E234D24486C
:206240001E60D9601D611860022A0ED9042A22D9082A16D9102A23D9202A26D9402A15D95D
:206260001C49144802F012FA04E04FF06051114802F00CFA0021607913F0D2FC01232371B7
:2062800070BD15490B4802F001FAF3E71349094802F0FCF9EEE70B49064802F0F7F9E9E79C
:2062A0000F49044802F0F2F9E4E70E49014802F0EDF9DFE72088FF1F80E100E084E100E008
:2062C00088E100E00110013801403F000110017800003F80076001380320013806500138D7
:2062E00003200338054001382DE9F041324DDFF8CCC02B68DCF8004082B0A0460093DDF872
:2063000000E04FF00047FF26E7626663E36A002BFCDAA36BDBB2FF2B037212D12B6801934E
:20632000019BCEEB0303B3F5967FEDD911238371037913B1FFF726FF0023184602B0BDE824
:20634000F081FE2B02D00F238371F1E792B10A444FF00046FF25E6626563E36A002BFCDA3B
:20636000A36B01F8013B8A4202D0DCF80040F2E7DCF8008000214FF00042FF230172C8F804
:206380002C20C8F83430D8F82C30002BFBDA4FF00042FF23D8F83810C8F82C20C8F8343076
:2063A000D8F82C30002BFBDAD8F838300123184602B0BDE8F08100BF80A6FF1F2088FF1F66
:2063C00070B41048104B026883B04FF000450092009E1A68FF24D5625463D36A002BFCDAC4
:2063E000936BDBB2FF2B09D003680193019B9B1B8B42F0D3002003B070BC7047012003B0A4
:2064000070BC704780A6FF1F2088FF1F70B5037982B004460D4601920BB9FFF7E5FE4FF4AC
:2064200016712046FFF7CCFF234B1A684FF0004145F04003D1625363D36A002BFCDA936BA1
:2064400001AE02A94FF0004011F8013DD0625363D36A002BFCDAB142936BF5D1002D14BF3F
:20646000872395234FF00041D1625363D36A002BFCDA0C2D936B15D000264FF00045FF212D
:20648000D5625163D36A002BFCDA936BD8B21B06207201D402B070BD0136B6F5807FEFD143
:2064A00002B070BD4FF00041FF23D1625363D36A002BFCDA936BDFE72088FF1F2DE9F04361
:2064C0006A4D044685B028680090174600226272A27121603846012167719846009E13F088
:2064E000B3FB3846012113F09BFB614802F090F823798022E271002B5BD02046FFF742FE0F
:206500005B4F3A680A214FF0004EFF20C2F82CE05063D36A002BFCDA4B1E916B13F0FF0139
:20652000F4D1002211462046FFF770FF01280DD02B680193019B9B1BB3F5FA6F2ED800229A
:2065400011462046FFF762FF0128F1D14FF000494FF4D57208212046FFF758FF05282FD022
:206560003A6804214FF0FF0EC2F82C90C2F834E0D36A002BFCDA906B4B1EC0B213F0FF01AD
:206580002072F1D1AA2841D02B680293029B9B1BB3F5FA6FDCD90223A37101E00123A37131
:2065A000207918B12046FFF7EDFD002005B0BDE8F0832046FFF718FE2379002BA0D09CE71A
:2065C000012363724FF0000906E02B680393039B9B1BB3F5FA6F1ED8002237212046FFF73A
:2065E00015FF4A4629212046FFF710FF0028ECD1637A022B12D0237913B12046FFF7C2FDF6
:20660000012084F8078005B0BDE8F083022363724FF08049E0E70A23A371C1E702463A2134
:206620002046FFF7F3FE10B10823A371B8E73B684FF00041FF22D9625A63DA6A002AFCDAEE
:206640009A6B02F0C002C02A04BF032262724FF000400322FF21D8625963DD6A002DFCDAD7
:20666000013A12F0FF029D6BF5D1C4E780A6FF1F2088FF1F38B5437A032B18BF4902154604
:206680000A4611210446FFF7C1FE40B10423A371207918B12046FFF775FD002038BD294699
:2066A0004FF400722046FFF71FFE0028F0D02579002DF3D02046FFF765FD284638BD00BF56
:2066C00038B5154600220446FFF7A0FE40B11023A371207918B12046FFF754FD002038BD16
:2066E000294610222046FFF7FFFD0028F1D02579002DF4D02046FFF745FD284638BD00BF69
:2067000030B585B06A4609210446FFF7D9FF48B19DF8003013F0C00306D0402B25D00B2385
:20672000A371002005B030BD9DF809409DF806309DF807209DF80A009DF805109DF80850E8
:2067400004F003046400920003F0030344EAD01001F00F0142EA8323084443EA9513013319
:20676000073803FA00F005B030BD9DF809309DF808209DF80700013303EB022303EB0040AF
:206780008002CFE710B5437A032B0A4618BF4A0212210446FFF73AFE48B120790523A37125
:2067A00000B910BD2046FFF7EDFC002010BD012010BD00BF38B500220C210546FFF726FED3
:2067C0002C7920B10323AB7154B9204638BD14B90124204638BD2846FFF7D4FC204638BDBD
:2067E00028460024FFF7CEFC204638BDF8B515461F460646FFF7C6FF80B1002417B90FE064
:20680000BC420DD229464FF400723046FFF76CFD0134A4B205F500750028F1D10020F8BDE9
:206820003046BDE8F840FFF7C5BF00BF38B5234B1C684FF00043E3626163E36A002BFCDA14
:20684000A36B511E4FF0004502F2FF1211F8013FE5626363E36A002BFCDA9142A36BF5D1E7
:206860004FF00042FF23E2626363E36A002BFCDA4FF00042FF23A16BE2626363E36A002BEC
:20688000FCDA4FF00042FF23A16BE2626363E36A002BFCDAA36BDBB203F01F02052A0372C8
:2068A00008D003791322827113B1FFF76BFC0023184638BD0123184638BD00BF2088FF1FC9
:2068C00038B5437A032B18BF490215460A4618210446FFF79BFD40B10623A371207918B172
:2068E0002046FFF74FFC002038BD2A46FE212046FFF79CFF0028F1D02579002DF4D0204678
:20690000FFF740FC284638BDF0B5174D174B2A681C6883B006460192019A4FF00047FF200F
