:1000000000000320D1010000CD280200D12702000A
:10001000D1270200D1270200D1270200D1270200F8
:10002000D1270200D1270200D1270200CD280200EB
:10003000CD280200D1270200F11E0200791D020026
:10004000CD280200CD280200CD280200CD280200D4
:10005000CD280200CD280200CD280200CD280200C4
:10006000CD280200CD280200CD280200CD280200B4
:10007000CD280200CD280200CD280200CD280200A4
:10008000CD280200CD280200CD280200CD28020094
:10009000CD280200CD280200CD280200CD28020084
:1000A00025A2000019A20000CD280200CD280200E0
:1000B000CD280200CD280200CD280200C126020072
:1000C000CD280200795F0100CD280200DD5E01002D
:1000D000CD280200415E0100CD280200CD2802009B
:1000E000CD280200CD280200CD280200CD28020034
:1000F000CD280200CD280200CD280200CD28020024
:10010000CD280200CD280200CD280200CD28020013
:10011000CD280200A9680100CD280200CD280200E8
:10012000CD280200CD280200CD280200CD280200F3
:10013000CD280200CD280200CD280200CD280200E3
:10014000CD280200CD280200A55D0100CD280200C7
:10015000CD280200CD280200CD280200CD280200C3
:10016000CD280200CD2802000DA20000CD280200FB
:10017000CD280200CD280200CD280200CD280200A3
:10018000CD280200CD280200CD280200CD28020093
:10019000CD280200CD280200055D0100CD28020017
:1001A000CD280200CD280200CD28020001A20000C7
:1001B000CD280200CD280200CD280200CD28020063
:1001C000CD280200CD280200CD280200CD28020053
:1001D00008B5614B4CF220521A804DF628121A8055
:1001E00000BF00BF102223F80E2CA3F51F43DE3BF7
:1001F0004FF030621A60594A9A60594ADA60594B96
:100200004FF470021A60584B584A1A60584A1368E3
:1002100013F4807304D157490B604FF4A853136053
:10022000554B1A78100703D51A7842F008021A7055
:10023000524B5349AA221A70524A534B8B4204D252
:1002400052F8040F43F8040BF8E7504B50490022D2
:100250008B4202D243F8042BFAE74E494E4A002360
:1002600052F8230041F823000133742BF8D14B4B93
:100270004B4A802103F8011B9342FBD1494B454A6D
:100280001A60494B8A221A70A3F5805324225A70AF
:10029000A0221A709A799107FCD59A79D206FCD4DB
:1002A000424A937903F00C03082BFAD1404B6022A9
:1002B0001A7002331A78802AFCD13C4B00221A7142
:1002C0004E225A719A799406FCD59979374A480694
:1002D000FBD5384B38491960082159602023137029
:1002E000937903F00C030C2BFAD1344B344A1A6087
:1002F000344B354A1A60002407225C6043F8042C12
:10030000324AC3F80C2D62B622F042FD194B1A682E
:10031000D1070AD52E4A2F491C60146042F8041CEC
:1003200010221A602C4A2D4911602D4A127852066B
:100330000ED52949294A0868904209D12448254CFC
:1003400000221A60026040F8044C102018600A6015
:1003500023F030FA0BF060FA0E200540823F0400D3
:100360000100002B88ED00E0002008E0030000857C
:1003700010D0034014D0034002D0074000E00740F3
:100380006C1EFF1F10AB03003007FF1F6C1EFF1F0A
:100390004C30FF1F0002FF1F0000000000E400E0DF
:1003A00064E400E008ED00E0005006400040064034
:1003B00001E007404480044000000703048004403B
:1003C000C010050014E000E07FA903000000202019
:1003D00004D0034040A3935B1CE00340A5C3945AA0
:1003E00000F00740FFFFFFFFFFFFFFFFFFFFFFFFE2
:1003F000FFFFFFFFFFFFFFFFFFFFFFFFFFFFFFFF0D
:10040000FFFFFFFFFFFFFFFFFFFFFFFFDEF9FFFF23
:1004100010B5054C237833B9044B13B10448AFF33E
:1004200000800123237010BD6C1EFF1F0000000020
:100430000CAB0300084B10B51BB108490848AFF3DB
:1004400000800848036803B910BD074B002BFBD0A0
:10045000BDE81040184700BF00000000701EFF1FDD
:100460000CAB03006C1EFF1F00000000FFFFFFFF2E
:10047000F0B52D4F7B683C68BE68FD6838697969C6
:10048000002203F1FF3EA4F1020C013E013D0138C0
:10049000013913460132B2F5FA7F2CF8023F4FF0D2
:1004A00000040EF8013F06F8013F05F8013F00F88F
:1004B000013F01F8013FEDD11C4D1D48D5F800C0AA
:1004C000D0F800E01B4D1C4E1C4B3C767C76BC7675
:1004D000FC763C777C773C624FEA1C47AF70A5F80E
:1004E00000C04FEA1E45B5701B68154D154A1649E8
:1004F00012682B8003C91B0CA6F800E0AB70DFF874
:1005000058E0124E124D134BAEF80020170C3280FB
:100510008EF80270B7702860297103F5C07243F835
:10052000044B9342FBD1F0BD881EFF1F9094020044
:1005300094940200E808FF1FEC08FF1F9894020043
:10054000F008FF1F9C940200C8940200F808FF1FE7
:10055000E008FF1F002BFF1FF408FF1F314B1B7823
:10056000022B0AD0304B01EB81011B6800EB4111DB
:1005700003EB410100230B8070472B4B2B4A1B6878
:10058000D2ED007ADFED2A6A01EB810100EB411127
:10059000B7EE006A33F81120D01000F0FC0007EE2F
:1005A000100A36EE676A67EEA67AB8EEC77AD00010
:1005B000C0B2F0EE675AE6EE075A121202F0F802E5
:1005C00007EE100AF8EEC76A07EE102A10B4B8EE6C
:1005D000C77AB0EE675AA6EE265A83B003EB410104
:1005E000E7EE067ABCEEE57AFCEEE77A8DED017A6D
:1005F000BCEEC57A9DF8043017EE100A17EE902A6B
:10060000DC0004F0E00402F0F802C0F3C400204370
:1006100042EA531340EA03230B8003B05DF8044B16
:10062000704700BFBE1EFF1FD02AFF1FE42AFF1F16
:100630000000FE422DE9F04F984B1B7883B023B1A8
:10064000974B1B78002B40F00981964BDFED966AA3
:100650009FED967A1E684FF4F0024FF42003782441
:10066000A0259349D1ED007A27EE877AB6EE006A8D
:10067000B5EEC07AF1EE10FAACBF37EE067A37EE7F
:10068000467A67EEA67ABDEEC77AF5EEC07A8DEDB2
:10069000007AF1EE10FAB6EE007AACBF77EE877A08
:1006A00077EEC77ABDF8008093FBF8F3FDEEE77AAA
:1006B00003F1010CCDED017ABDF8047092FBF7F265
:1006C0000132002F00F0E6804FF000090094CB4685
:1006D0004446CA4690469CB14FEA2B4E04EB0900B3
:1006E00005FB0EFE06EB400006EB490200230EEB75
:1006F0002341634436F8111022F8021B9042F6D1D0
:100700000AF1010A5745C344A944E4D1A046C8EB05
:100710000503009C00934FEA430BC1464FF0000ACB
:10072000A8455A464FF0FF0106EB490001DA23F0D5
:1007300083F80AF1010A5745A944F1D1A74211DA19
:1007400005FB07F306EB43034FEA450AB846184694
:100750005246FF2123F070F808F101080346A04536
:100760005344F4D1DDED007AB8EEE77AF6EE006A94
:1007700067EE267AF5EEC07AF1EE10FAC0F28380C9
:1007800077EEA67AFDEEE77ACDED007ABDF800109F
:1007900019B3681E400006EB000A4FF00008023053
:1007A0004FF6FF7CD1464B460022013233F802EC73
:1007B000A3F800E0A2420344F7D1A9F10209B14530
:1007C000F1D100231A460132A24226F803C00344A5
:1007D000F9D108F101088845E4D1E31B07EE903A0E
:1007E000B8EEE77AF6EE006A67EE267AF5EEC07AA2
:1007F000F1EE10FA40DB77EEA67AFDEEE77ACDED6A
:10080000007ABDF80090B9F1000F24D0A4F10208DD
:1008100005FB08F86F4206EB4808013C7F004FEAF1
:10082000450A4FF0000BC646002073462246198841
:1008300023F81510013A3B44F9D10130A8420EF1DA
:10084000020EF2D10BF1010B5246FF21304622F08D
:10085000F3FFCB45E7D103B0BDE8F08F154BDFEDDB
:10086000166A1E689FED157A4FF470024FF0A07360
:10087000F0244FF4A075F4E677EEE67AFDEEE77A21
:10088000CDED007ABDE777EEE67AFDEEE77ACDEDC5
:10089000007A7BE7C8EB0503009351E7792AFF1F35
:1008A0007A2AFF1FD02AFF1F0000F04200002043D9
:1008B000D01EFF1FDC2AFF1F000070430000A04372
:1008C00030B583B068460DF0C3F9BDF80020BDF81F
:1008D0000200A2F10A039BB2822B09D8A0F10A01FF
:1008E000462905D82E4B012283F8242003B030BDC1
:1008F000A2F1B40189B282290DD9822B16D98D3A81
:10090000262AF3D851384E28F0D8254B072283F8F1
:10091000242003B030BDA0F1A004462C04D8204B05
:10092000052283F82420E1E7822B1AD8592809D917
:10093000962807D81A4C256A012D27D0032384F85E
:100940002430D3E7822903D8A0F10A03462B18D913
:10095000A0F1A003462BD2D8114B062283F8242005
:10096000C4E7A0F15A013C2907D80D4C216A01299E
:100970000ED0042384F82430B8E7A0F10A03462BF4
:10098000BDD8074C022384F82430AFE78229DFD892
:10099000A0F10A014629F5D9822BD9D9AFE700BFCA
:1009A000881EFF1F2DE9F041E2B002AC62AE4FF6A7
:1009B000FF674FF6FF7809E00DF107001FF094FF85
:1009C000012857D027800234B4421AD00DF1070015
:1009D0001FF08AFF0128EFD10DF107009DF80750A5
:1009E0001FF082FF01284FEA052545D04FF6FF731F
:1009F0002B449BB2434508BF002323800234B442FA
:100A0000E4D10DF10A030DF5C371002033F8022B78
:100A100032B133F8042C1AB91A88002A08BF012011
:100A20009942F3D158B300211B4E08460DF106053B
:100A300001E0C0291BD0CAB2130903EB830302F003
:100A40000F0202EB431303EB830335F8024F5B0005
:100A500006EB800700F1010E01330131002CE8D0D4
:100A600026F820305FFA8EF060287C80E1D162B0F9
:100A7000BDE8F0814FF47F459DF80730B8E7064B9D
:100A800001AA03F5C07052F8041F43F8041B834207
:100A9000F9D162B0BDE8F081002BFF1F2DE9F04FC6
:100AA000C94BCA4D4FF480764FF410722E6083B05C
:100AB00004461A6011B108461FF0E2FFC44BC54856
:100AC0001968224601231DF075FEC34B5F6A42F28E
:100AD00095539F4200F0258142F215739F4200F02A
:100AE000208149F215639F4204D049F295739F42D9
:100AF00040F05281B94E002501AC20461FF0F4FEB3
:100B0000012808BF9DF8043020460CBF4FEA032897
:100B10004FF47F481FF0E8FE012808BF9DF804301D
:100B2000326818BFFF23434453530235B5F5164FBF
:100B3000E3D120461FF0D8FE012808BF9DF80430FD
:100B400020460CBF1D024FF47F451FF0CDFE01284B
:100B500008BF9DF80430A24A18BFFF232B4420464B
:100B600013801FF0C1FE012808BF9DF80430204605
:100B70000CBF1D024FF47F451FF0B6FE012808BFD1
:100B80009DF80430974A18BFFF232B441380264654
:100B900002ADA0460DF103001FF0A6FE01280CBF18
:100BA0009DF80330FF2308F8013BA845F2D18E4B96
:100BB000019A1A600DF103001FF096FE8B4A01287E
:100BC0000CBF9DF80330FF230DF1030013701FF0DD
:100BD0008BFE012800F0EC800123854A0DF1030013
:100BE00013701FF081FE012800F018810123814A53
:100BF0000DF1030013701FF077FE012800F0DE8076
:100C000001237D4A0DF1030013701FF06DFE7B4A36
:100C100001280CBF9DF80330FF2313700DF1030072
:100C20001FF062FE01280CBF9DF80330FF2304F87B
:100C3000013BA542F2D1724C019B23600DF10300F0
:100C40001FF052FE01280CBF9DF80330FF2306F869
:100C5000013BB542F2D1DDED017A6A4A42F2955389
:100C60009F42C2ED007A3ED042F215739F423AD0C5
:100C700049F215639F4222D049F295739F421ED0DC
:100C8000614B002103F5C07243F8041B9342FBD172
:100C900049F295739F4200F0888042F215739F429B
:100CA00000F083801EF0FCFE4849474B4FF4107063
:100CB0004FF4807208601A6003B0BDE8F08F9FEDBA
:100CC000537AD4ED006A524BF4EE476AF1EE10FA13
:100CD00006D19FED507AF4EE477AF1EE10FA1DD06E
:100CE00001221A70CCE79FED497AD4ED006A484B97
:100CF000F4EE476AF1EE10FA4BD19FED467AF4EE2E
:100D0000477AF1EE10FA44D149F215620321974275
:100D1000197003D049F295729742B1D103221A702B
:100D2000AEE72E4E4FF4207501AC49F68008A5F2CF
:100D30007E2AA5F5A07920461FF0D6FD012808BF20
:100D40009DF8043020460CBF4FEA032B4FF47F4B35
:100D50001FF0CAFD012808BF9DF80430326818BF93
:100D6000FF2302EB0A005B449BB220F8023C02EB3B
:100D7000090122F80A3022F8093009F10409A945CD
:100D80004B800AF1040AD6D105F520754545CED130
:100D9000CFE600221A706BE700211F481CF056F8BE
:100DA0004FF47A7021F09CFF7CE7FFF7FBFD79E7B9
:100DB0009DF80330003318BF01230EE79DF8033080
:100DC000003318BF01231CE704C0044014B00440E2
:100DD000182DFF1FD429FF1FCC29FF1FD02AFF1F6A
:100DE000CE2AFF1FCC2AFF1FFC2AFF1FBF1EFF1F9A
:100DF000D61EFF1FC41EFF1FC51EFF1F802CFF1F16
:100E0000202DFF1F1C2DFF1F002BFF1F339388C3B6
:100E1000F42AFF1F0AD7233CA09402009DF8033058
:100E2000003318BF0123E2E62DE9F04FC3B0DFF82D
:100E3000188300AFC246786198F81850012D00F071
:100E4000C8830021322207F15C0022F0F5FCD8F8BB
:100E5000201000296C461EDDDAF800201388B3F557
:100E6000FC6300F16A84312B00F3958402EB4101AD
:100E70000120023208E032F8023BB3F5FC6300F1D6
:100E80005C84312B00F3878407F5847633449142E8
:100E900003F8AC0CEFD107F15B0307F18D0113F8F8
:100EA000012F0AB10135EDB29942F8D1AB000A33F6
:100EB00023F007030022ADEB030D96466D4688F83C
:100EC0001820114607F18E03A44613F8010C5E1E8C
:100ED00050B1511C03F2DF7307F15C041B1BC9B254
:100EE00045F8223086460A4607F15C0086423346C2
:100EF000EBD16446BEF1000F40F09B84012A00F064
:100F0000918429468E481BF02BFB461C00F01D8463
:100F100055F820008B490A2222F08CFC04228949D2
:100F2000786927F08BFFA546D8F82030002293423D
:100F3000BA61FA613A6240F3E5831446012604E09F
:100F4000D8F820300134A34215DDD8F800307D48B0
:100F500033F8145022F00CFC8542F1D1DAF8043059
:100F60001B5D07F584721344013403F8F16CD8F863
:100F70002030A342E9DC7B7E3B60BB7E7B60FB7E56
:100F8000BB6097F818903B7FFB607B7F3B61B97F2C
:100F9000F87F97F8205097F8216097F822E097F8AB
:100FA0002320EB46B9F1000F00F0B783664B5B7E60
:100FB0000133DBB23C680CB10133DBB27C680CB1AD
:100FC0000133DBB2BC680CB10133DBB2FC680CB19D
:100FD0000133DBB23C690CB10133DBB209B101333F
:100FE000DBB208B10133DBB20DB10133DBB20EB1BC
:100FF0000133DBB2BEF1000F01D00133DBB2002AB6
:1010000000F073830133DBB29B000A3323F0070344
:10101000ADEB030D01224FF00C0CCDF800C06C4677
:10102000134688F819204FF0020CBEF1000F05D0CE
:101030000B2244F8232088F819C0624636B10A26EC
:10104000531C44F82260DAB288F8192035B109251A
:10105000531C44F82250DAB288F8192030B1082025
:10106000531C44F82200DAB288F8192031B1072164
:10107000531C44F82210DAB288F819203B6933B1C6
:101080000621531C44F82210DAB288F81920FB68B4
:1010900033B10521531C44F82210DAB288F8192024
:1010A000BB6833B10421531C44F82210DAB288F82B
:1010B00019207B6833B10321531C44F82210DAB2A3
:1010C00088F819203B6833B10221531C44F82210E0
:1010D000DAB288F81920B9F1000F06D001215318AF
:1010E00044F82210DAB288F81920012A00F05D8352
:1010F000214616481BF034FA411C00F0138354F8C3
:10110000200013490A2222F095FB114822F030FBFF
:10111000092840F337837B690D490222181D27F007
:101120008DFE07F13B06DD461F22002107F13C0042
:1011300022F082FBD8F82030002B2FDD00240EE0B7
:10114000E8940200E008FF1F881EFF1FF8940200C9
:10115000E808FF1FD8F820300134A3421EDDD8F87C
:101160000030CA4833F8145022F002FB8542F1D116
:10117000DAF80430C6481D5D22F0FAFA8542E9D15A
:10118000DAF808301B5D07F584721344012203F876
:10119000CD2CD8F820300134A342E0DC98F81A2096
:1011A000E946334613F8011F09B10132D2B207F103
:1011B0005A018B42F6D193000A3323F00703ADEBBB
:1011C000030D4FF0000E4FF0000388F81A306C4604
:1011D0007046724607F15B051F2315F8011D29B102
:1011E000501CC0B244F822308E460246013BF4D176
:1011F000BEF1000F40F02483012A00F0BD82214699
:10120000A4481BF0ADF9421C00F0AE8254F8200057
:10121000A1490A2222F00EFB9F4822F0A9FA0928D0
:1012200040F399827B699C490222981D27F006FEB3
:10123000CD46D8F82030002293427A62BA62FA6230
:101240003A637A63BA632DDD144604E0D8F820309F
:101250000134A34226DDD8F800308C4833F814500E
:1012600022F086FA8542F1D1DAF8043088481D5D13
:1012700022F07EFA8542E9D1DAF8083086481D5D11
:1012800022F076FA8542E1D1DAF80C301B5D07F5E1
:1012900084721344012203F8E42CD8F8203001347E
:1012A000A342D8DC98F81B206C4607F1230313F8FF
:1012B000011F09B10132D2B2B342F8D193000A330F
:1012C00023F00703ADEB030D4FF0000C4FF00003CC
:1012D00088F81B306D46E646624607F13C0017234E
:1012E00010F8011D39B102F1010E5FFA8EFE45F8CA
:1012F00022308C46724613F1FF33F1D2BCF1000F5D
:1013000040F09B82012A00F0EA81294663481BF0E5
:1013100027F9431C00F0DC8155F8200060490A22BF
:1013200022F088FA5E4822F023FA092840F3C781A8
:101330007B695B49022203F1080027F07FFD07F17A
:10134000CB05A54607F207143C22002107F1CC008B
:1013500022F072FAD8F82030002B3CDD4FF0000963
:1013600005E0D8F8203009F101094B4533DDD8F804
:101370000030464833F819B022F0FAF98345F0D12D
:10138000DAF80430424813F809B022F0F1F9834545
:10139000E7D1DAF80830404813F809B022F0E8F94C
:1013A0008345DED1DAF80C303D4813F809B022F05D
:1013B000DFF98345D5D1DAF8103013F8093007F595
:1013C00084721344012203F83C2CD8F8203009F130
:1013D00001094B45CBDC98F81C20E9462B4613F855
:1013E000011F09B10132D2B2A342F8D193000A33EE
:1013F00023F00703ADEB030D4FF0000C4FF000039B
:1014000088F81C30EB46E646624607F584703B23BD
:1014100010F8011D39B102F1010E5FFA8EFE4BF892
:1014200022308C46724613F1FF33F1D2BCF1000F2B
:1014300040F00982012A00F0F080594619481BF05B
:101440008FF8411C00F029815BF8200016490A2220
:1014500022F0F0F9144822F08BF9092840F3D480E7
:101460007B691149022203F10A0027F0E7FC3C22C4
:101470000021CD4607F1900022F0DEF9D8F82030A7
:10148000002B56DD4FF0000916E000BFE008FF1FFB
:10149000E808FF1F0C950200EC08FF1F1C950200D6
:1014A000F008FF1F2C950200F408FF1FD8F8203029
:1014B00009F101094B453CDDD8F80030C74833F845
:1014C00019B022F055F98345F0D1DAF80430C44858
:1014D00013F809B022F04CF98345E7D1DAF8083067
:1014E000C04813F809B022F043F98345DED1DAF899
:1014F0000C30BD4813F809B022F03AF98345D5D134
:10150000DAF81030B94813F809B022F031F9834500
:10151000CCD1DAF8143013F8093007F5847213448B
:10152000012203F8782CD8F8203009F101094B4545
:10153000C2DC98F81D20EB4607F18F0313F8011F5A
:1015400009B10132D2B2AB42F8D193000A3323F091
:101550000703ADEB030D4FF0000C4FF0000388F8CC
:101560001D30E9466046624607F1CC0E3B231EF86B
:10157000011D29B1501CC0B249F822308C460246E8
:1015800013F1FF33F3D2BCF1000F40F02481012AA4
:101590007CD0494696481AF0E3FF421C1ED059F809
:1015A000200094490A2222F045F9924822F0E0F8FE
:1015B000092839DD7B698F4903F10C00022227F0ED
:1015C0003DFC8D4B1B78DD46002B3AD07A69002319
:1015D000937307F58677BD46BDE8F08F98F81C3009
:1015E000864A012BDD463FF6AFAE844BDB7E012BF6
:1015F0003FF61FAE814B9B7E012B3FF695AD537E90
:10160000012B3FF691AC17E4786978493023837257
:1016100001220B3027F012FC29E7DBF800007349A8
:101620000A2222F007F915E778697249302303731B
:1016300001220D3027F002FC6F4B1B78DD46002B9A
:10164000C4D16F496F4E7C696F4B704A18681B7923
:101650004FF4807E4FF41075C6F800E00D607D6990
:101660000E34C5F80E00116823712A46012368481C
:101670001DF0A0F8674B1B7A1B0740F19C801EF001
:101680000FFA07F58677BD46BDE8F08FD9F8000060
:1016900058490A2222F0CEF887E798F81B30012B30
:1016A000CD463FF6C6AD554B9B7E012B3FF63CAD7C
:1016B000524B5B7E012B3FF637ACFFF7BDBB786921
:1016C0004949302303720122093027F0B7FB36E67F
:1016D00098F81A30012BA5463FF626ADE8E72868B2
:1016E00041490A2222F0A6F81CE69B000A3323F0A7
:1016F0000703ADEB030D88F8192013466C464FF035
:10170000010C92E4964616461546104611463A617B
:10171000FA60BA607A603A60EB4698F819304FF098
:10172000000947E498F81850012DDD467FF489AB95
:1017300007F58677BD46BDE8F08F374800211BF0DE
:1017400085FB4FF47A7021F0CBFAA54607F5867732
:10175000BD46BDE8F08F78692249302383710122AC
:10176000073027F06BFB63E598F81930012BCD4665
:101770003FF6DAABFFF760BB20681A490A2222F075
:1017800059F849E57869164930230371012205307B
:1017900027F054FBC5E4002120481BF057FB4FF411
:1017A0007A7021F09DFAA546D0E720680C490A22FC
:1017B00022F040F8A9E41A4B7A6918681B79C2F83C
:1017C0000E0023711EF06CF91CF018FF07F58677E8
:1017D000BD46BDE8F08F88F81D00D8E6E008FF1F81
:1017E000E808FF1FEC08FF1FF008FF1FF408FF1FA9
:1017F00040950200F808FF1F5B24FF1F881EFF1F93
:1018000004C0044014B0044054950200182DFF1F7A
:10181000D429FF1FCC29FF1FB4940200D0940200EA
:101820005C950200286809490A2222F003F8FFF7B4
:1018300075BB88F81810FFF761BB88F81BE061E5FD
:1018400088F81A00D8E488F81CE0F3E5E008FF1FE8
:101850002C492D4B70B54FF410724FF480740C600E
:101860001A6006461EF042F910BB284B1968284D35
:10187000012305F1080032461CF09CFF287A00F095
:10188000080303F0FF0473B9B47368B904461D4834
:101890001D4B4FF41076002106604FF480722972C0
:1018A00020461A6070BD01241A4809F05DFEEEE77B
:1018B000194C94F83C341BB104F23C4009F054FE3E
:1018C0000023012084F83C341EF03AF8A8B194F8C3
:1018D0003C34114C002BC8D104F23C45284621462B
:1018E00009F092FE0028C0D094F83C3413F0700F39
:1018F000064BBBD029461D60B9E71EF021F8002831
:10190000E5D1B2E714B0044004C00440182DFF1F15
:10191000CC29FF1FD429FF1F5C25FF1F00B583B012
:1019200002A800F8011D012114F072FE03B05DF859
:1019300004FB00BF2DE9F043C34EC44C4FF4807745
:101940004FF4107537608BB08E462560002800F08C
:101950000D81BF4BBF491868CEF80E001B798EF879
:10196000123072460968BC4863231CF023FF0DF156
:101970001C08BA4BBA4E1B7803F0FD03012B00F094
:1019800049814FF0000909F5A0774C4633681D5B8B
:1019900001212B0A02A88DF8083004341EF020FD26
:1019A00001210DF107008DF807501EF019FDA74227
:1019B000ECD109F52079B9F5164FE4D1A94DAA4C1F
:1019C0002B880AA81B0A00F81A3D01211EF008FD09
:1019D0000AA82B8800F81B3D01211EF001FD238879
:1019E0000AA81B0A00F81C3D01211EF0F9FC0AA8F8
:1019F000238800F81D3D01211EF0F2FC9B4B1B6863
:101A00008DF81C30190A1A0C1B0E8DF81D108DF85C
:101A10001E208DF81F30454608AC464616F8013B9F
:101A20008DF80F3001210DF10F001EF0D9FCB442EA
:101A3000F4D18F4B0AA81B7800F8163D01211EF047
:101A4000CFFC8C4B0AA81B7800F8173D01211EF033
:101A5000C7FC894B0AA81B7800F8183D01211EF02D
:101A6000BFFC864B1B78002B77D10AA8012100F818
:101A7000153D1EF0B5FC824B0AA81B7800F8133DFB
:101A800001211EF0ADFC7F4B1B688DF81C30190A3C
:101A90001A0C1B0E8DF81D108DF81E208DF81F30AE
:101AA00018F8013B8DF8163001210DF116001EF0DB
:101AB00097FC4445F4D1744B1B688DF81C30190A0F
:101AC0001A0C1B0E8DF81D108DF81E208DF81F307E
:101AD00015F8013B8DF8173001210DF117001EF0AC
:101AE0007FFCAC42F4D1694CA51C04F5C07635F8F6
:101AF000023C01211B0A0DF11B008DF81B301EF06A
:101B00006FFC35F8023C8DF81A3001210DF11A00F6
:101B10001EF066FC638801211B0A0DF119008DF887
:101B2000193004341EF05CFC34F8023C8DF8183097
:101B3000012106A81EF054FCA64205F10405D6D1E9
:101B40001DF0AEFF4049414B4FF410704FF48072CE
:101B500008601A600BB0BDE8F0834D4B0AA81B78F3
:101B600000F8143D01211EF03BFC84E71346494D6B
:101B7000494A4A4F4A4EA5FB031407CAE4081FFA14
:101B800084F8A7FB03C7A6FB03C60DF11C0CACE849
:101B90000300A5FB08107609BF0904EB8404C00804
:101BA000A5FB0719A5FB065100EB8005A3EB44003C
:101BB0003C4CACF800204FEAD909C908A4FB032328
:101BC00009EB890901EB8101A6EB4101A8EB450571
:101BD000A7EB49075B0B01F1300200F1300630330F
:101BE0007046303507F130048DF81E208DF81C301A
:101BF0008DF820608DF81F508DF81D401EF040FFBD
:101C0000144B154819680DF11C08424663231CF05B
:101C1000D1FDAEE6002433681B5B01211B0A0DF1E8
:101C20000A008DF80A301EF0DBFB336801211B5BD4
:101C30008DF8093002340DF109001EF0D1FBB4F526
:101C4000164FE8D1BAE600BF14B0044004C0044007
:101C500054950200182DFF1FD429FF1FF42AFF1FDF
:101C6000D02AFF1FCE2AFF1FCC2AFF1FFC2AFF1FEE
:101C7000BF1EFF1FD61EFF1FC41EFF1FD82AFF1F37
:101C8000802CFF1F202DFF1F1C2DFF1F002BFF1F6F
:101C9000C51EFF1FCDCCCCCC64950200D34D621085
:101CA0001F85EB515917B7D1F0B51B4C1B4B1C4A84
:101CB0001C4DA4FB0174A409A3FB0176A3FB04CE75
:101CC000A2FB0172F6084FEADE0EB7B252090EEB24
:101CD0008E0EA4EB4E04A3FB02CEA3FB07C34FEA78
:101CE000DE0EDB08A5FB01C506EB86060EEB8E0EAD
:101CF00003EB83036D0BA2EB4E02A7EB4303A1EBB7
:101D00004601303530343032303330310570447074
:101D10008270C3700171F0BDD34D6210CDCCCCCCBC
:101D20001F85EB515917B7D110B580B11EF0A8FE31
:101D30000A4A0B4B1068127918601A71094B0A4A4B
:101D400019680A486323BDE810401CF033BD034AFC
:101D5000074B1068127918601A71EFE7709502004E
:101D6000892CFF1F182DFF1F842CFF1FD429FF1F54
:101D7000922CFF1F30B583B004460D461DF0A8FC21
:101D800069460A2221F056FD69460422204627F0C2
:101D900055F81DF0AFFC69460A2221F04BFD1DF0FD
:101DA000A9FC09286DDC3023237101226946601DDE
:101DB00027F044F81DF0AEFC0A22694621F03AFDF6
:101DC0001DF0A8FC092856DC3023A37101226946C6
:101DD000E01D27F033F81DF0CDFC0A22694621F002
:101DE00029FD1DF0C7FC09283EDC302323720122A7
:101DF000694604F1090027F021F81DF0ABFC0A2226
:101E0000694621F017FD1DF0A5FC092825DC3023CB
:101E1000A3720122694604F10B0027F00FF81DF0B0
:101E200089FC0A22694621F005FD1DF083FC092882
:101E300009DC30232373694604F10D003DB323F020
:101E40006DFA03B030BD694604F10C00002DF6D1E7
:101E5000022226F0F3FF03B030BD0222694604F1EE
:101E60000A0026F0EBFFDAE70222694604F10800D7
:101E700026F0E4FFC1E702226946A01D26F0DEFF3E
:101E8000A9E702226946201D26F0D8FF92E7012229
:101E900026F0D4FF03B030BD8B7B2E2B02D0002365
:101EA00003707047CB7B442B32D0422BF7D10B7C95
:101EB0004D2BF4D14B7C502BF1D1194B2DE9F04136
:101EC00001F10E070546174E18681B79C1F80E0080
:101ED0000C463B711DF0E4FD316813482246012396
:101EE0001CF068FC114B1B7A1B0744BF00232B70AE
:101EF0000F4B18681B79C4F80E003B711DF0D0FD24
:101F00002246316808480123BDE8F0411CF052BC6C
:101F10000B7C412BC3D14B7C542BC0D1704700BFED
:101F200054950200182DFF1FD429FF1FCC29FF1F35
:101F30005C9502002DE9F041784E8AB0337A002199
:101F400004468DF804108DF80510002B72D0F27A3B
:101F5000002A00F09580776901AD2846002F00F037
:101F60009680242221F068FC102101223369099710
:101F70008DF804108DF8062003930127B189C91B41
:101F8000490128461CF054FB002853D0069B0DF154
:101F900003012846C3F343181EF03EFC40B201285B
:101FA0008DF8030046D1039A069B4FEA481E02F1C2
:101FB00030081F3318EB0E0C06933BD09CF80B3007
:101FC0000F2B37D118F80E3003F01F039F4231D189
:101FD0007B1E03EB430103EB810160180023042BFC
:101FE000DAB25DD90A2A60D95A1C0CEB42029288F7
:101FF0006AB1122913D87E2A03F1010394BFD2B229
:102000003F220D2B01F1010100F8012BE7D112292C
:1020100005D818F80E305A0644BF00236354002335
:10202000A37418F80E305B0606D40137F37AFFB2BA
:10203000BB42A3D20023237021460422384826F055
:10204000FDFE211D0222374826F0F8FEA11D0222C6
:10205000354826F0F3FE04F108010222334826F049
:10206000EDFE04F10A010222314826F0E7FE314874
:1020700004F10C0102220AB0BDE8F04126F0DEBEF8
:1020800013F0600516D02F2362702370D4E73169F6
:1020900009F0BAFA0028CDD0F37A002BCAD06CE749
:1020A0000CEB4302B2F80120A2E75A1E0CEB4202ED
:1020B000D2889DE73069316A24302A4608F042FD13
:1020C0000028B9D0B38903F00F0310EB4316B3D047
:1020D0002B462946701E08274FF02E0E10F8012FB0
:1020E000202A0DD0082B11D0A2F14105192D04D8BA
:1020F000357B2F421CBF2032D2B262540131C9B2AB
:1021000001330B2BEAD10023635495E704F801E077
:102110000131C9B202781027E6E700BFCC29FF1FC2
:10212000E008FF1FE808FF1FEC08FF1FF008FF1F73
:10213000F408FF1FF808FF1F2DE9F04F634B6449B7
:10214000644F4FF480704FF41072086087B01A60CB
:1021500021F0CAFA3B6AB3F5FA7F0ADB5C495B4BB4
:102160004FF410704FF4807208601A6007B0BDE839
:10217000F08F594D2B7A002BF0D1DFF88881574E24
:10218000C14620E02B7A544A19077FD5536A42F2A0
:10219000955293422BD042F21572934227D049F2C6
:1021A0001562934223D049F2957293421FD04C4A54
:1021B00093421CD04B4809F0D7F93B6A0022B3F593
:1021C000FA7F2A72CADA98F83C3413F0700FC5D03F
:1021D000D9F85034D806C1D115F016FD0028BDD06D
:1021E0003378002BCED02B7A13F0700F4ED001A88D
:1021F00006ACFFF79FFE012304F8153D204615F0BD
:10220000ABFC3378002B44D09DF80330002B3CD03E
:10221000D7F820A02F4CBAF5FA7F3FDA3248D4F82D
:1022200000B021F0A5FA2BF81A003048D4F804B019
:10223000D4F820A021F09CFA0BF80A002C48D4F81E
:1022400008B0D4F820A021F093FA0BF80A0029482E
:10225000D4F80CB0D4F820A021F08AFA0BF80A00C8
:102260002548D4F810B0D4F820A021F081FA0BF85A
:102270000A002248D4F814B0D4F820A021F078FA4B
:10228000236A0BF80A00013323622B7A002B94D0C7
:1022900090E701A92046FFF7FFFDB5E71DF000FC20
:1022A0000A4B0B4916484FF480724FF410740C60BF
:1022B00000211A601AF0CAFD4FF47A7020F010FD68
:1022C00019F08AFD07B0BDE8F08F00BF04C00440DC
:1022D00014B00440881EFF1FCC29FF1F5B24FF1F82
:1022E00042600900D429FF1FE008FF1FE808FF1F14
:1022F000EC08FF1FF008FF1FF408FF1FF808FF1F7E
:10230000789502005C25FF1F114BF0B51A68114E3D
:10231000114DDFF84CE0114F00234FF6FF701C46C3
:10232000023A3380288000E0288832F8021F814278
:1023300004D2AEF800301188298011888C4202D274
:102340003B80148834800133B3F5964FECD1F0BD57
:10235000D02AFF1FBE2AFF1FBC2AFF1FBA2AFF1F59
:10236000B82AFF1F10B4174B1B78042B09D8DFE8DD
:1023700003F00B12192103000023FF2403700B70DC
:1023800014705DF8044B7047FF2303705DF8044B35
:102390000B7013707047002303705DF8044B0B70D3
:1023A00013707047FF24002304700B705DF8044B1A
:1023B000137070470023FF2403700C7013705DF8D6
:1023C000044B7047B42AFF1F0E4B1A6870B40E4CB2
:1023D0000E4E02F5154500214FF6FF70FE35023A0C
:1023E0002180308000E0218832F8023F8B4288BF94
:1023F000238083423CBF33801846AA42F3D170BC8D
:10240000704700BFD02AFF1FCC2AFF1FCE2AFF1F14
:102410002DE9F04F254B1B6885B003F5134282323E
:10242000023303920293F2EE026A029830F802BC81
:102430000688B0F840A1B0F83E11B0F87E32B0F88E
:10244000805200F5207900F59F748046012039F80C
:10245000027FB4F804C038F802EF07EB0C027244B4
:102460002A44524432441A448B185B4407EE903A93
:10247000F8EEE77A013087EEA67A9F28B3462B461E
:10248000E24676463D46FCEEC77ACDED017ABDF8D0
:10249000041024F8021FDAD1029B039A03F5A073FB
:1024A0009A420293C1D105B0BDE8F08FD02AFF1F38
:1024B0002DE9F04F274B9FED287A1B6885B003F577
:1024C00013428232023303920293029830F802BC24
:1024D0000688B0F840A1B0F83E11B0F87E32B0F8EE
:1024E000805200F5207900F59F748046012039F86C
:1024F000027FB4F804C038F802EF07EB4C027244D4
:1025000002EB450202EB8A0202EB46021A4402EB9E
:1025100041035B4407EE903AF8EEE77A013067EE4C
:10252000877A9F28FCEEE77AB346CDED017ABDF8B5
:10253000041024F8021F2B46E24676463D46D6D1CB
:10254000029B039A03F5A0739A420293BDD105B092
:10255000BDE8F08FD02AFF1F0000803D2DE9F04F2D
:102560002DED048B0E46ADF5277D054620B1C44BFD
:102570001B78032B00F03381C249DFEDC38ADFF8FB
:102580004493DFF844839FEDC19ADFEDC19A0023A5
:102590000B809A46BF4B4FF6FF721A80002D00F059
:1025A0000781B0EE688A57460024D9F800300693B8
:1025B000DDF818B00A2020F093FB12F051FAD8F899
:1025C000003003F5834003F5A64E10300EF1100ED7
:1025D000002302884188B0F808C013448288194457
:1025E000C38811445A184389018A6244B0F80CC068
:1025F0001344C289634402EB030C428A838A614418
:102600001144B0F816C05A18038B418B624400F590
:10261000A070134486450B44DBD107EE903AF8EEE8
:10262000E77A87EE897AFCEEC77ACDED037ABDF8BA
:102630000C30BB42BED0002BBCD09A4612F09CFEA0
:1026400070EE487AB2EE047AF5EEC07AF1EE10FA46
:10265000D8BFF1EE677AF4EEC77AF1EE10FAF0EE39
:10266000408A2BD542AB03EB840383ED000A854BF4
:102670001B88534538BF834B10AA38BFA3F800A06E
:10268000844B22F814A01A885245834A88BFA3F8C5
:1026900000A082FB0412E317C3EBA20303EB830346
:1026A000B4EB430F4ED1002D00F08D800DF11300DF
:1026B00001218DF8134013F0ABFF0134D9F800303D
:1026C0000793079BCBEB03036E2BF7D90BF09EFA16
:1026D00030B12EB955B9294601200FF03BFE58B351
:1026E000632C32DCB0EE688A57465EE7632CF9DD76
:1026F00005AA42A910A81EF029FC12F0FFFE674AA5
:10270000674BD2ED007AD3ED006A9FED617A654B9D
:1027100037EEC00AF0EE407AE6EE877AC3ED007A33
:10272000012012F0AFF81BF07DFC8C2308A80121DA
:102730008DF8203013F06CFF0DF5277DBDEC048B78
:10274000BDE8F08F002DB8D0B0E705AA42A910A8C7
:10275000524C534F1EF0FAFB12F0D0FED4ED007A2B
:1027600097ED007A4F4A37EEC00AF0EE407AE7EE76
:10277000297AC2ED007A002DD2D1DDED057AB6EED0
:10278000007AF4EEC77AF1EE10FA0AD5A6B101216B
:1027900045481AF05BFB4FF47A7020F0A1FADDEDAA
:1027A000057AB6EE007AF4EEC77AF1EE10FA1ED58D
:1027B000304619F0C7FDF4E619F034FE002835D094
:1027C000DDED057AEDE7224608A8384926F010FB32
:1027D00008A88C2242F20E7118F0BCFE6DE70023AF
:1027E00042A801218DF8083113F012FFA4E73868E0
:1027F00025F072FC80462068894625F06DFC424633
:10280000CDE900014B462A4908A826F0F1FA08A8AC
:1028100000211AF01BFB4FF4FA6020F061FA1BF064
:1028200001FCF6B123480AF023F985E7224B234A3D
:102830003A60012220681A7025F04EFC0EA3D3E9FD
:102840000023CDE900011A4908A826F0D1FA314643
:1028500008A81AF0FBFA4FF4FA6020F041FA1BF0D6
:10286000E1FB012116481AF0F1FA4FF47A7020F0DA
:1028700037FAD7E7AFF30080000000E051B89E3F81
:10288000F42AFF1FCC2AFF1F000000000000444371
:1028900000000046CE2AFF1F67666666202DFF1FD8
:1028A0001C2DFF1FD42AFF1FAC9502009C9502002F
:1028B000C8950200E0A20300D82AFF1F8FC2F53C92
:1028C000E49502004825FF1FD02AFF1F00B51E4BCC
:1028D0002DED028B1B7883B0B0EE408A3BB19FEDAB
:1028E0001B7ADFED1B7A30EE478A28EE278A194BD8
:1028F0001B78032B1FD012F001FE174BDFED176A78
:10290000D3ED007A164A174B92ED007AA7EEE60A4D
:1029100030EE070A83ED000A38EE408A88EE277A07
:10292000FCEEC77ACDED017ABDF8040003B0BDEC32
:10293000028B5DF804FB0B4A9FED0B0A064B82ED00
:10294000000AD3ED007AE7E7D61EFF1F0000004221
:10295000E4380E3FF42AFF1F1C2DFF1F0000004625
:10296000D42AFF1F202DFF1F339388C3654B2DE909
:10297000F04FB3F90030644EDFF8B081634FB8F820
:10298000001007EE903A33882DED028B5A1A07EEAD
:10299000102AF8EEE77AF7EE006A85B077EEE67A6D
:1029A000B8EEC77A97F800E00022044687EE878ADF
:1029B0008DF80F208DF80E208DF80D20BEF1000F40
:1029C00022D0534A1278022A1ED0524BB3F900305B
:1029D00000EE103AB8EEC00AFFF778FF4E4AB8F89A
:1029E00000101278338897F800E007EE900A012A69
:1029F000B8EE677A0ED16CB9484A127852B1484A9B
:102A00004FF49635146809E0434A9FED467A1278F0
:102A1000012AF0D0444A14684FF49645DFF810912B
:102A2000DFF810A1DFF8E8B004EB450531E0BEF1B6
:102A3000010F58D05B1A07EE903AF8EEE77AD9F812
:102A4000001067EE887AFCEEE77ACDED017ABDF8EA
:102A5000043003EB4303CA18C95C8DF80F1050789B
:102A60008DF80E0093788DF80D30C20001F0F8015A
:102A700002F0E00241EA501142EAD30343EA0123A3
:102A800024F8023BA54238D03388B8F8001097F8F4
:102A900000E02288934228BF13468B4238BF0B4682
:102AA000BEF1020FC3D107EE903AF8EEE77AB4EE2A
:102AB000E77AF1EE10FABDD89AF80020002AB9D0D2
:102AC0009BF80020022AB5D00DF10E010DF10F0088
:102AD0000DF10D02FFF746FC9DF80F109DF80E005A
:102AE0009DF80D30C1E707EE903AF8EEE77AB4EEC4
:102AF000E77AF1EE10FADFDA9CE705B0BDEC028B65
:102B0000BDE8F08FEC2AFF1FCC2AFF1FC91EFF1F54
:102B1000BE1EFF1FB22AFF1F792AFF1F7A2AFF1F3E
:102B2000DC2AFF1F00000000D02AFF1FCE2AFF1F53
:102B3000E82AFF1FD82AFF1F2DE9F04F9F4BA04C1A
:102B40008046894693E807008FB003AB03C34CF679
:102B500059601A800AF056FA9A499B48CE220A70A8
:102B60009A4A592313709A4B00261E7009F080FF71
:102B70002670984C98481F231E2242F20E71237033
:102B800018F0E8FC954809F073FF8D4B94481E70CF
:102B9000502242F20E71267018F0DCFC782242F2CC
:102BA0000E71904818F0D6FC434632468E4906A86E
:102BB00026F01EF906A8A02242F20E7118F0CAFCF7
:102BC0004A468A4906A826F013F9C82206A842F206
:102BD0000E7118F0BFFC864A0323B045137040F312
:102BE000D880834B1B78032B40F0D380814BDFF8D8
:102BF00040B21B68804DDFF83CA201937F4B019AE5
:102C0000CDF81120B2B2A3FB02017D48C908A0FB98
:102C1000020C7C488CB2A0FB020EA3FB0470C0081F
:102C2000794F4FEA9C1C00EB800001EB81014FEAD9
:102C30005E1EA2EB4101A4EB4004A7FB0272A3FBC2
:102C40000C70C008A3FB0E733031DB0800EB800072
:102C5000ACEB40008DF8101003EB83036549AEEB3D
:102C600043033030520B303391F804E08DF80D00FF
:102C700030323034494603A88DF80E308DF80F40BD
:102C80008DF80C208DF815E0FDF708FF5F4B1B78E1
:102C9000022B00F08C80012B00F08C805C4B1B78A9
:102CA000002B40F081800120FFF760FE594B00248B
:102CB0001A7800921C701AF05BF99BF804305549A1
:102CC000009A8DF81530544B0A70DBF80000CDF8EF
:102CD00011004FF480714FF4107219604846C3F828
:102CE000F02F1DF0CDFE4D494D480968632303AA1E
:102CF0001BF060FD42214B481DF072FB2B68012147
:102D00001B5B8DF80B300DF10B001DF069FB2B6880
:102D10001B5B01211B0A02340DF10A008DF80A30F9
:102D20001DF05EFBB4F5164FE8D19AF8083013B1E8
:102D30003B4808F019FC38492848264F4FF41072D8
:102D40000A60394A224900244FF4807313600C70E2
:102D50001C498AF80840CE220A701C4A5923137075
:102D600009F086FE16482049047001363246434673
:102D700006A83C7026F03CF8A02242F20E7106A88C
:102D800018F0E8FBB04504D0194B1B78032B3FF437
:102D900035AF002125481AF059F84FF47A701FF02A
:102DA0009FFF0FB0BDE8F08FFFF7AEFA7BE7FFF7AC
:102DB0002FFB73E7FFF77CFB70E700BF6495020011
:102DC000842AFF1F872AFF1FB8110300882AFF1FCC
:102DD000862AFF1F852AFF1F04960200E0A2030037
:102DE000189602003C960200609602007C96020053
:102DF000992CFF1F54950200D02AFF1FCDCCCCCCBC
:102E0000D34D62101F85EB515917B7D1982CFF1F76
:102E1000802CFF1F7A2AFF1F14B00440182DFF1FBB
:102E2000D429FF1F4C94020004C004408C96020079
:102E30005C950200CC29FF1F08B501F075FF124B0D
:102E40001B78022B1AD0012B1BD0104B1B7863B9B7
:102E50000F4B1B78012B0ED00020FFF787FD1AF0D7
:102E600087F8BDE808401AF0D1BFFFF74DFA084BCC
:102E70001B78012BF0D11DF0E3F8EDE7FFF7C8FA5E
:102E8000E3E7FFF715FBE0E7982CFF1F802CFF1FFF
:102E9000792AFF1F2DE9F04FC04B2DED028B1B78D7
:102EA000A1B0002B00F0A880BD4B1B78012B00F0D7
:102EB000A38019F081F9BB4819F0B6F80FF03AFB7E
:102EC000B94ABA491160BA4B78222F210F201EF05F
:102ED000EBFCB84B78222F21A5201EF0E5FCB64B69
:102EE0002822BC210F201EF0DFFC0FF081FD0AF02C
:102EF0008DFE0028FBD0002101200FF02BFA40B1FD
:102F0000012806D00228F2D121B0BDEC028BBDE829
:102F1000F08FAA4BAA4C1B880893AA4B20701B88E1
:102F20000993A94BA9481B780A93A94BDFF8D8A2AB
:102F30001B780B93A74BD3ED008AA74B012193ED90
:102F4000008A19F083FF02214FF4FA7025F0FEFE8B
:102F50000121CAF800004FF4FA7025F0F7FE0121B4
:102F6000CAF804004FF4FA7025F0F0FE0121CAF807
:102F700008004FF4FA7025F0E9FE0121CAF80C00B0
:102F80004FF4FA7025F0E2FE0121CAF810004FF468
:102F9000FA7025F0DBFECAF81400FDF769FAFFF7B6
:102FA000CBF8DAF82020002A3ED123780121FBB9A2
:102FB0008A4819F04BFF4FF47A701FF091FEDAF84F
:102FC000000025F0D3FEDAF8040025F0CFFEDAF891
:102FD000080025F0CBFEDAF80C0025F0C7FEDAF881
:102FE000100025F0C3FEDAF8140025F0BFFE60E7FC
:102FF0007B4819F02BFFDEE701217A4819F026FF04
:103000001BF0A8FA00287FF454AF0121764819F08C
:103010001DFF4FF47A701FF063FE18F0DDFE21B043
:10302000BDEC028BBDE8F08F5D4B70480494704C92
:103030001978704E704D0023237003706F4C7048E8
:103040003370012903702B70237004BF6D4B19700E
:1030500020AB013A43F8482D12A81946079314F003
:1030600077FE20F0E5FA002312A8674D8AF8243095
:10307000FEF7EEFB002800F0D781049B1C78002CA3
:1030800040F0D2812B6A61480293214619F0DEFE9E
:103090009DF85750442D00F0C985422D00F0FC8268
:1030A0005B48214619F0D2FE4FF47A701FF018FEEB
:1030B0009AF82430013B052B00F22381DFE813F05E
:1030C00010012301B2005B000600C3000124514B34
:1030D0001B78002B46D1504B93F80022002AFBD0DE
:1030E000002CC0D019F06CFE0121384819F0AEFE5A
:1030F000DAF8000025F03AFEDAF8040025F036FE92
:10310000DAF8080025F032FEDAF80C0025F02EFE81
:10311000DAF8100025F02AFEDAF8140025F026FE71
:10312000264BBDF820201A80264BBDF824201A809B
:10313000254B9DF828201A70254B9DF82C201A70DD
:10314000244BC3ED008A244B83ED008A1BF060F80A
:1031500012F09CF8314820F019FA21B0BDEC028B36
:10316000BDE8F08F0AF052FD0028B9D00AF04EFDFC
:103170000028F7D1B4E70021294819F067FE0E9B1B
:10318000002B40F0BC84DAF82030013B07990E9305
:1031900012A814F0DDFD002499E700BFC81EFF1F30
:1031A000792AFF1FC09602000C30FF1FB8110300E0
:1031B000CC960200D4960200DC960200CE2AFF1FB5
:1031C0005B24FF1FCC2AFF1FF42AFF1FE496020096
:1031D000D82AFF1F202DFF1F1C2DFF1FF496020071
:1031E000049702009C960200B0960200C61EFF1FC4
:1031F000C21EFF1FC11EFF1FC31EFF1FC91EFF1FD0
:10320000802CFF1F7A2AFF1F881EFF1FBC98020018
:1032100014970200D41EFF1F1C18FE43514C0000DF
:10322000309802000021AC4819F010FE002112A8CD
:1032300014F094FE0546002800F0F0840E9B013344
:103240000E93002443E712A8FEF702FB002800F0CB
:10325000E285049B1C78002C40F0DD859DF85730FA
:10326000422B00F0CE859D4B9D4D9E4A18681E79DD
:10327000CDF856004FF480734FF410718DF85A60FA
:1032800017A82B601160012312AA97498DF85C40A2
:103290008DF85D401DF09AFB05461BF0AFF9002D3F
:1032A00040F09E8519F038FA0446002800F0A08509
:1032B00029468E4819F0CAFD12A801F0FDFD2946E5
:1032C0008B4819F0C3FD4FF47A701FF009FD894B4C
:1032D00018681B79CDF856002C468DF85A30F6E662
:1032E000DAF82030012B40F0E183049B19780029A3
:1032F00040F0D783804819F0A9FD4FF47A701FF091
:10330000EFFC0024E3E6764F764D7C4C4FF480765C
:103310004FF410783E60C5F8008020F0E5F9784B56
:1033200012AA196804F1080001231BF043FA237A5A
:1033300003F0080202F0FF09002A40F0FE828DF837
:103340005690002B40F0EF82C7F8008023722E6069
:103350006C486D4D14F0D0FB6C4A6D4B0024284630
:1033600014701C7009F084FB6A496B4A6B4B0C703B
:10337000CE2111706A48422242F20E7159241C700B
:1033800018F0E8F8692242F20E71664818F0E2F887
:103390007D2242F20E71644818F0DCF80FF0CAF892
:1033A000624A63491160634B3722A0210F201EF04F
:1033B0007BFA614B3722A021A5201EF075FA0FF091
:1033C00017FB5A4B1D600AF021FC0028FBD000219E
:1033D00001200EF0BFFF002800F030840128F2D158
:1033E0003F4E404C55484FF480754FF41077356090
:1033F00027601DF045FB37602560FDF739F8FEF7C3
:103400009BFEDAF82030002B40F03D83049A1178BF
:10341000002940F033834A4819F018FD4FF47A70C0
:103420001FF05EFC012452E6DAF82030059312A862
:10343000444B069319F0ECF84FF00008029017ACDB
:103440000DF13C09069B93E807004B4603C31FFAA6
:1034500088F148461A80FEF727FC12A94846FDF776
:103460001DFBFFF7E9FC029B374908F101022046EA
:1034700025F0BEFC2146059819F0B8F92C4809F052
:10348000F7FA324B1B78002B00F0FF80462242F205
:103490000E712F4818F05EF81B4809F0E9FA0AF09F
:1034A000B5FB0028FBD0FDF70BFA9AF82430002B6F
:1034B000F5D00AF0ABFB0028FBD19AF82420254B6D
:1034C000072A7FF4F5AD83F824000394029A42455D
:1034D00044DC002A40D1FEE7309802005C950200EF
:1034E00014B0044004C004409829FF1F58980200FB
:1034F000749802005495020040970200CC29FF1FE7
:10350000182DFF1F98970200E0A20300842AFF1FD6
:10351000852AFF1F862AFF1F872AFF1F882AFF1F71
:10352000A8970200CC970200E89702000C30FF1F1A
:10353000B811030004980200089802001C980200C9
:10354000F4960200649502002C970200C41EFF1F2F
:1035500038970200881EFF1F4FF000080AF056FB44
:10356000002876D19AF82420B84B072A78D093F80F
:103570002430002B7FF49CAD1FFA88F5A3F1333380
:10358000A3FB0526B24F069AA7FB054C07CAB14F0D
:10359000F608A7FB054E1FFA86FB4FEA5E1E4FEAB0
:1035A0009C1C4F4603C7A3FB0B10A3FB0C41A3FBC2
:1035B0000E43A94C3A8006EB8606C008C908DB0812
:1035C000A5EB460600EB800001EB810103EB8303D2
:1035D000A4FB0545AEEB4303ABEB4000ACEB410174
:1035E0006D0B01F1300C303300F1300B12A948465D
:1035F000303630358DF83E308DF83DC08DF8406066
:103600008DF83FB08DF83C50FDF748FA01F08CFB87
:10361000924B1B78022B35D0012B30D0904B1B786E
:1036200023BB904B1B78012B26D0002008F101080A
:10363000FFF79CF919F09CFC1AF0E8FB4246029B4C
:103640008949039825F0D4FB0399059819F0CEF821
:103650003CE7FDF735F99AF824207C4B072A86D100
:10366000039C0AF0D3FA0028FBD1EBE6FEF74CFEF0
:103670007C4B1B78012BD8D11CF0E2FCD5E7FEF780
:1036800017FFCBE7FEF7C4FEC8E76E2242F20E71C9
:10369000764817F05FFFFFE67549764A764B774824
:1036A0004FF480740C604FF410711160196812AA05
:1036B00001231BF07FF817AC20461DF015F9013DE2
:1036C000FAD1684B1B78002B40F0F0806C4F4FF024
:1036D000B4094FF077084FEA680606EB8606B60194
:1036E0004FF0000B20461DF0FFF8012820460CBFCC
:1036F0009DF85C50FF251DF0F7F8012808BF9DF9E3
:103700005C303A680CBF1B026FF0FF0306EB6B01E5
:103710000BF1010B2B43BBF5207F22F81130E1D1D7
:1037200018F1FF38D7D21AF069FF554B1B68009388
:1037300049463C234FF4A072002014F0D1F84C49C4
:103740004FF480720A60A9F13C094A4A4FF41073A1
:1037500019F13C0F1360BCD11CF0A2F91AF04EFF16
:10376000002323606360A360E3602E2223613A2379
:103770008DF85E208DF861208DF867309DF84F2020
:103780008DF86A309DF84C308DF85D208DF85F30F3
:103790009DF84D209DF84A308DF860208DF86230FC
:1037A0009DF84B209DF850308DF863208DF86530E2
:1037B0009DF851209DF852308DF8662021469DF8E5
:1037C00053209DF84E408DF8683020259DF85430E8
:1037D0008DF8692002988DF864508DF85C408DF862
:1037E0006B309DF855308DF86C3018F0FFFF254A8E
:1037F000136813F4E06305D123484FF4807180F817
:1038000080321160214B224A2249C3F82C21224ADE
:10381000C3F83011C3F834212049214AC3F83811C4
:10382000C3F83C2172B6174A1E49136823F470236B
:10383000136043F0857313601B4BCB6162B69AF83B
:103840002430002BFBD01FF0F3FE31E4881EFF1F55
:10385000D34D62101F85EB515917B7D1982CFF1F1C
:10386000802CFF1F792AFF1F2C9702003897020037
:1038700014B0044004C00440182DFF1FD429FF1FBA
:10388000D02AFF1F1CC004401C18FE430002FF1F6B
:103890003107FF1F5D07FF1F8907FF1FB507FF1FC8
:1038A000E107FF1F0813FF1FC1080000974E40F2F9
:1038B000DF174FEA670808EB88084FEA88184FF0CF
:1038C000000920461DF010F8012820460CBF9DF885
:1038D0005C50FF251DF008F8012808BF9DF95C30F9
:1038E00031680CBF1A026FF0FF0208EB690009F1A2
:1038F00001092A43B9F5207F844B21F81020E0D13B
:1039000017F1FF37D5D203931CF0CAF81AF076FEF0
:10391000039B00211B6800930846F0234FF4A0721C
:1039200013F0DEFF1CE704F1080007F01DFEC7F8E6
:10393000008084F808902E600AE54FF0000904F139
:10394000080007F011FEC7F8008071482E60714D25
:1039500084F8089014F0D0F86F4A704B82F8009009
:10396000284683F8009009F083F86D4A6D496E4B44
:103970006E4882F80090CE2642220E70592442F200
:103980000E711C7017F0E6FD692242F20E71684854
:1039900017F0E0FD7D2242F20E71664817F0DAFD65
:1039A0000EF0C8FD644A65491160654B3722A021BD
:1039B000A5201DF079FF634B3722A0210F201DF0B9
:1039C00073FF0FF015F85C4B1D600AF01FF900281B
:1039D000FBD0002101200EF0BDFC10B10128F4D174
:1039E0000BE505460146584819F030FA5749584B3F
:1039F0004FF410724FF4807008601A6012A81FF024
:103A000001FE544B544918681E79CDF8560017AC86
:103A10002046012312AA8DF85C508DF85D508DF878
:103A20005A601CF0D3FF10B112A81FF0EBFD4B4BF6
:103A3000494918681B79CDF856008DF85A30204650
:103A40000123002412AA8DF85C408DF85D401CF023
:103A5000BDFF10B112A81FF0D5FD3C4A3C4B4048B9
:103A60004FF4107111604FF480721A60002119F048
:103A7000EDF94FF47A701FF033F9BEE41946394876
:103A800019F0E4F9CAE40E9A07999342D8BF03F1FA
:103A9000FF3312A8D8BF0E93002414F059F9FFF792
:103AA00016BB0021304819F0D1F926E4FCF7E0FC00
:103AB000FEF742FB4CF6596009F0A4FA17AC12A8C5
:103AC000FDF7B2F9142212A9204625F0B7F91F4AD2
:103AD0001F4B264E4FF4807111604FF410721A6024
:103AE0001FF002FE357A6DB1184A194B4FF4107170
:103AF00011604FF480721A600024FFF7E8BA013BAE
:103B0000FFF744BB1A4FB046B94650E0DC2AFF1F0E
:103B1000DC980200E0A20300842AFF1F852AFF1F11
:103B2000862AFF1F872AFF1F882AFF1FEC980200A2
:103B3000CC970200E89702000C30FF1FB811030079
:103B400004980200089802007897020014B004401C
:103B500004C00440709502009829FF1F5C95020084
:103B600088970200049702005C970200CC29FF1F8F
:103B70005C25FF1F337A180746D5D8F8243042F267
:103B80009552934228D042F21572934224D049F2C2
:103B90001562934220D049F2957293421CD0C34AD9
:103BA000934219D0C24807F0DFFC0023337297F824
:103BB0003C3413F0700F97D0D9F85034DB0693D112
:103BC00014F022F800288FD0049B1B78002BD1D052
:103BD000337A13F0700F17D012A80DF1800BFEF797
:103BE000A9F901220BF8442D584613F0B5FF049BA8
:103BF0001A7862B19DF83C302BB112A9204621F011
:103C000023FA48B10135337A002BCED0CAE75846A3
:103C100012A9FEF741F9EDE70E9565E7012112A81B
:103C200014F09CF92C460E95FFF751BA214612A8C4
:103C3000FCF734FF17ACFFF7FFF891E59D4BDFF879
:103C4000B4B2014606469C481C4619F0FFF89B4A50
:103C50009B4B9C484FF4807111604FF410721A60B6
:103C60008DF856601CF00CFF12A81CF009FF94E8B8
:103C700007000DF13C094B4603C317AC1A803BE02B
:103C800020468DF85C708DF85D701CF09FFE00285A
:103C900040F004818C4B8D4918681B79CDF84100A8
:103CA00000278DF845304A46012320468DF85C7088
:103CB0008DF85D701CF08AFE002840F0F380844B84
:103CC000824918681B79CDF8410000278DF84530EE
:103CD0004A46012320468DF85C708DF85D701CF01B
:103CE00075FE002840F0D6807A4B18681B79CDF815
:103CF00041008DF845300136774B7449B0B2A3FBD3
:103D00000027ABFB002CFF08744A1FFA87F8A2FBC0
:103D1000002EA3FB0852D208714D4FEA9C1C4FEABB
:103D20005E1E07EB870702EB8202A8EB4202A0EBC4
:103D30004707A5FB0050A3FB0C58A3FB0E534FEA0B
:103D4000D808DB0808EB880803EB8303ACEB480CCE
:103D5000AEEB430E400B0CF13003303702F130086C
:103D600030300EF130028DF840708DF83D30002774
:103D700001238DF83E208DF83C004A4620468DF800
:103D80003F808DF85C708DF85D701CF01FFE4A4618
:103D900002234E4900287FF473AF804649481CF047
:103DA0006FFE012312AA49498DF85C8020468DF8E8
:103DB0005D801CF00BFE002840F0B4803F4A404B71
:103DC00048484FF4107111604FF480721A6000215E
:103DD00019F03CF84FF47A701EF082FFFFF70DBB2C
:103DE0004148214619F032F84FF4FA701EF078FF7E
:103DF000384B18681B79CDF856008DF85A30FFF70C
:103E000066B92146384819F021F84FF4FA701EF0CF
:103E100067FFFFF75CB912A818F0FAFB334B274F86
:103E2000274D814693E807000FAB03C34FF480761C
:103E30004FF410781A8000243E6012A8C5F8008064
:103E40008DF856401CF01CFE4FF0300E01230FAAD7
:103E50001E498DF85C4017A88DF85D408DF83CE058
:103E60008DF83DE08DF83EE08DF83FE08DF840E0C4
:103E70001CF0ACFDC7F8008007462E6000283BD040
:103E800021461B4818F0E2FF4FF4FA701EF028FF9D
:103E9000FFF737BA48461FF0B5FB25E7204607F085
:103EA000CDFBF7E648461FF0ADFB08E7426009008E
:103EB000D429FF1F649502000C98020014B004403E
:103EC00004C004401C9802005C9502009829FF1F62
:103ED0007095020054950200CDCCCCCC1F85EB51DF
:103EE0005917B7D1209802003C980200109902009F
:103EF00084980200D34D621018F00EFC00283FF4A5
:103F000000AA3946274818F0A1FF4FF47A701EF036
:103F1000E7FE12A94846FEF70FFE234B3C461F70F2
:103F2000FFF7D5B89DF85C30D9067FF547AF1C9BED
:103F30001BB1CDF86C80CDF870800023C3F343151E
:103F400085B120331C9319996A013031881817D034
:103F50008A5CD2B1E52AF1D02E2AEFD0C27A1207BC
:103F6000ECD42BE70DF1370120461CF055FC40B294
:103F700001288DF8370003D11C9B1F331C93E2E707
:103F80009DF85D30002B7FF419AF9DF85E3008225C
:103F900043F0020320468DF85E308DF85C2007F078
:103FA0004DFB0BE7A0980200992CFF1F08B52DEDE3
:103FB000028B194B1B78032B08EE100A22D011F04C
:103FC0009DFA164BDFED166AD3ED007A154A164BB3
:103FD00092ED007AA7EEE60A30EE070A83ED000ABA
:103FE000124BB8EEC88A1B78A8EE270A3BB19FEDAA
:103FF000107ADFED107AE0EE077AB0EE670ABDECDA
:10400000028B08BD084A9FED0C0A044B82ED000AA2
:10401000D3ED007AE4E700BFF42AFF1F1C2DFF1F39
:1040200000000046D42AFF1F202DFF1FD61EFF1FB1
:104030006666E63F00000042339388C32DE9F04FE7
:10404000964D2C78012C87B000F03D8206A9002304
:104050000122934CADF81430362001F8042D0522CE
:10406000238015F0BDFD10F0FBFC19F05BFD8D4BBE
:104070008D4E1B78032B51D03378002B4ED08B4BB9
:104080001B78002B4AD18A4B1888FFF78FFFB5EEBB
:10409000C00AF1EE10FAF6EE007AACBF30EE270A55
:1040A00030EE670A834BFDEEC07A1888CDED017AB9
:1040B000BDF90440FFF77AFFB5EEC00AF1EE10FA41
:1040C000F6EE007AACBF30EE270A30EE670A631EC8
:1040D000FDEEC07A784ACDED017A07EE103AD2EDC6
:1040E000007AB8EEC77AB4EEE77AF1EE10FA00F390
:1040F0000382BDF904305A1C07EE102AB8EEC77AC5
:10410000F4EEC77AF1EE10FA08DD07EE103AB8EED9
:10411000C77A6A4B77EEC77AC3ED007A684C694874
:10412000D4F80080DFF8BCC100F5C07E01884A1ECB
:1041300092B2ACFB0273DB0903EB8307A2EB4712DD
:104140007B0113FA82F211B138F812304380043047
:104150008645EBD15C4B1B78002B40F0B181337866
:1041600023B1524B1B78002B00F07E812B78012B62
:1041700000F08081554F3B78022B00F090812B7826
:1041800023B1534B1B78002B40F08580DFF858910A
:10419000DFF85881FCF74EFA99F800300026002528
:1041A0005BB129463046FCF7D9F999F80030013562
:1041B000ADB203EB83029542F3DB98F800208AB19D
:1041C000772529463046FCF7C9F998F80020C2EB5C
:1041D0008273013DC2EB8303ADB277339D42F0DCC5
:1041E00099F800300136B6B2A02ED8D1C2EB827158
:1041F000C2EB8102773203EB83039A42029246DBE1
:10420000344A3548127890F8009034493878256857
:1042100091ED005A9FED324A0390C2EB8278C2EBD7
:10422000880209EB89099B4602F19F08F7EE004AD4
:104230004FF0000C4B46002B00F00981039A4FEA27
:104240008B0707EB0B0E022A4FEA4E1E50D00021BF
:104250000A460132714492B29A4225F811C01146C1
:10426000F7DBB8F19F0F0BD05F447F019F210A4617
:10427000013A394492B2904525F811C01146F7DB56
:104280000BF1010B029A1FFA8BFB9345D3DD002142
:1042900008460CF0B3FA07B0BDE8F08F792AFF1F8B
:1042A000BE2FFF1FF42AFF1FF82AFF1FF92AFF1F46
:1042B000CE2AFF1FCC2AFF1FFC2AFF1FD42AFF1F74
:1042C000D02AFF1F002BFF1F802CFF1FBE1EFF1FC9
:1042D0007A2AFF1FCC1EFF1FCD1EFF1FE42AFF1FDF
:1042E0000000FE42CDCCCCCCCA1EFF1FCB1EFF1F50
:1042F0004FF0000925EE046A74EEC56A4E4609EBDC
:104300000E04F0EE465A35F81420D11001F0FC01ED
:1043100007EE901AD100F8EEE77AC9B2E6EEA75A96
:10432000121202F0F80207EE901AB8EEE77AF0EEF9
:10433000463AE6EE873A0136B6B207EE902AF8EE34
:10434000E77AB0EE637AF0EE463AE7EEA63A9E429E
:10435000B146FCEEE55ABCEEC77ACDED015AFCEE53
:10436000E37A9DF8042017EE101A17EE90AA4FEA90
:10437000C20000F0E000C1F3C4010AF0F80A41EA0B
:1043800000014AEA521241EA022225F81420B6DB63
:10439000B8F19F0F3FF474AF5F447F014FF09F0966
:1043A00025EE046A74EEC56A4E4609EB0700F0EE8E
:1043B000465A35F81020D11001F0FC0107EE901A92
:1043C000D100F8EEE77AC9B2E6EEA75A121202F06F
:1043D000F80207EE901AB8EEE77AF0EE463AE6EE0B
:1043E000873A013EB6B207EE902AF8EEE77AB0EED1
:1043F000637AF0EE463AE7EEA63A4645B146FCEE61
:10440000E55ABCEEC77ACDED015AFCEEE37A9DF891
:1044100004A017EE902A17EE104A4FEACA0E0EF0CB
:10442000E00EC4F3C40402F0F80144EA0E0441EAC9
:104430005A1244EA022225F81020B6DC0BF1010BD7
:10444000029A1FFA8BFB93457FF7F5AE1FE7B8F191
:104450009F0F3FF415AF039A0BEB8B07022A4FEA2D
:1044600047177FF403AF99E7FDF7AEFF2B78012BD9
:104470007FF480AEAA4B1B7893B3AA4BAA4F18685F
:104480004FF41632FF211FF0D7F9002108460CF037
:10449000B5F9FCF7CFF83B78022B7FF470AEA34B55
:1044A0001B78022B25D0012B00F037812B78012BB4
:1044B00002D19B4B1B784BBB0020FEF757FA5EE600
:1044C000FDF722FF4BE62146842016F075F92146C0
:1044D000842016F071F90221842016F06DF9C2E5EE
:1044E000914F3B78022B7FF451AE904B1B78022BFF
:1044F000D9D1FDF78DFFD9E707EE104AB8EEC77A9C
:104500008B4B77EEC77AC3ED007A07E6894B8A4A70
:10451000DFF838E2894FB3F9003092ED006ABEF857
:1045200000A0874AB7F8009025681468DFED852A57
:104530009FED853A07EE903AC9EB0A02F8EEE77A6A
:1045400007EE102AB7EE004A77EEC47AB8EEC77AC3
:10455000744BC7EE873A1B684FF0000CA3F10208BA
:1045600074EE465A07EE90CAF8EEE77A464667EED2
:10457000A27A0020BDEEE77ACDF808C0B8EEC75A9F
:1045800017EE10BA37EEC55A0BEB8B0B4FEA4B1BED
:1045900074EE454A03E0BEF800A0B7F8009036F884
:1045A000023F07EE900AF8EEE77A013027EE837AB1
:1045B000FDEEC77A17EE902A02EB0B0105EB4102E4
:1045C000F8EEE77AB2F802C035F8111006EE90CA9C
:1045D00077EE677A02EE101AF8EEE66AB2F840114A
:1045E000B2F8422134EE671A66EEA76AB8EEC22A24
:1045F00007EE101A22EE012A66EEA46AB8EEC77A18
:10460000E2EE246A27EE057A01EE902AE1EE076ACF
:10461000DA1002F0FC0267EE857AF8EEE11A02EE9B
:10462000102AE1EEA76ADA00D2B207EE102AFCEEF9
:10463000E67A1B12CDED017ABDF80420924528BF21
:104640009246CA452CBFC9EB0A09C9EB090906EE17
:10465000909AF8EEE66A03F0F80366EEA36A07EEB6
:10466000903AFCEEE66AB8EEC22ACDED016ABDF8DA
:10467000043003EB4303E21822EE062A5178E35C90
:10468000927806EE901AF8EEE66A01EE902AA6EE0F
:10469000A52AB0F5A07FB8EEC77AF0EE426AF8EE30
:1046A000E77A02EE103A27EE067A67EE867AF8EE9F
:1046B000E11AB8EEC22AA1EEA57AE2EE257AFCEE66
:1046C000E66ABCEEC77ACDED016AFCEEE77A9DF8AA
:1046D00004A017EE903A17EE101A4FEACA0909F033
:1046E000E009C1F3C40103F0F80241EA090142EA1A
:1046F0005A1341EA032333807FF44DAFDDF808C03D
:104700000CF1010CBCF1F00F08F520783FF4C3ADBB
:10471000BEF800A0B7F8009024E7FDF7C9FEC5E693
:104720007A2AFF1FDC2AFF1FBE1EFF1F982CFF1FC7
:10473000D42AFF1FEC2AFF1FE42AFF1FCE2AFF1FE7
:10474000E82AFF1FDEDDFD3E6666FE3ECC2AFF1F27
:104750002DE9F047244D254F88B005F5C07629880E
:104760004B1E9BB2A7FB0302D20902EB8204A3EB10
:10477000441464005200A4B279B3EE2A134602F145
:104780000F0988BFE42322462046A4F1140488BF01
:104790004FF0F30819464FF0000A24B294BF0FFA05
:1047A00089F8C14608F0C4FF544540F2171303DBF3
:1047B0009C42A8BF1C46A246B9F1E50F688888BF95
:1047C0004FF0E508FFF7F2FB01A902201BF0AAFC5D
:1047D0004246514601A816F0BDFE0435B542BED191
:1047E00008B0BDE8F08700BF002BFF1FCDCCCCCCBC
:1047F0002DE9F04FB04BDFF8C4B21B7895B01BB970
:104800009BF80030002B49D09BF80020AB4B022ACC
:1048100000F0B1801A78032A02D015B0BDE8F08FFD
:10482000A748427B077B856801213F2A90E810104A
:10483000197000F2F480A34BDFF894E253F8328051
:104840000022914692463E4698F80032DBB29E42E4
:1048500000F05281DEF8001012911299091B8C456C
:1048600000F24A81DEF8002011921E4601221F4606
:10487000119C1346914692460025002EE4D1BAF1D0
:10488000000F40F0E280B9F1000F00D00773002A5A
:1048900040F0D081837315B0BDE8F08F8A4B1A7851
:1048A000002AB1D1894A127802F0FF010191002A51
:1048B000AAD15B7803F0FF020292002BA4D1844CB2
:1048C000236806930A20DDF818801EF009FA7C4858
:1048D00023680593427B059B90F80CC0D0F804A098
:1048E000876806683F2AC8EB030300F25D817549BB
:1048F000CDF80CA051F83220DDF8089001939246D3
:10490000024696469AF800226046D2B29042494644
:1049100000F0A98025680A950A9DAB1B039D9D4266
:1049200000F2A1806A4909680991099E0121944613
:10493000104602910A4689460027019B002800F094
:10494000A680B3F57A7F40F382807046B9F1000FFC
:1049500040F05D81029B0BB180F80CC0002940F053
:104960006C81827301238BF800309BF80020534B3D
:10497000022A7FF44FAF5248417B027B86680324B2
:104980003F2990E820101C702FD84E4B504F53F801
:10499000318000218E468A46914698F80032DBB27B
:1049A0009A4200F097803C680E940E9C641BA445CC
:1049B00000F290803A680D9201211A4699460D9DA9
:1049C0000B468E468A460026002AE6D1BAF1000F31
:1049D00040F03681BEF1000F01D080F80C90002924
:1049E0003FF458AF8660837355E70021384F8E46F9
:1049F000374C002A00F0A0803B680E930E9B5B1B97
:104A00006345C0F0998023680D934FF0010E00229A
:104A10000D9D73467146164605609146DAE7002201
:104A20002B4E96462A49002F00F09D803368129342
:104A3000129B1B1B6345C0F096800B6811930122EB
:104A40000025119C2F461346914604601BE72368FE
:104A50000793079B9AF80022D2B2C8EB0303904257
:104A600001937FF457AF002F5AD022680892089A1A
:104A7000921B974254D8164A019B12680B9201214F
:104A80000B9E0A468946002700287FF45AAF7046DD
:104A9000B9F1000F40F0CB80029C002C40F0D28096
:104AA00001B18760B3F57A7F8273BFF65BAF074AC7
:104AB00002231370A8E600BFB02AFF1F992CFF1F26
:104AC0003825FF1F6C290300AD1EFF1F812CFF1F1F
:104AD0004825FF1F36B33B680C930C9B5B1B9E4223
:104AE00020D83B680F9301210F9D0B468A46002674
:104AF000002A7FF452AF69E7CDB1DEF800301093A1
:104B0000109B1B1B9D4212D8DEF80030139301222C
:104B1000139C134692460025002E7FF495AEAEE618
:104B200000220AE70023002A7FF437AF4EE7002374
:104B3000002E7FF489AEA2E666B33B680C930C9B13
:104B40005B1BB34226D33B680F9301210F9D0B469D
:104B50008E460026002A7FF44BAFBEF1000F3FF4D3
:104B60003EAF964658E7D5B133681093109B1B1B98
:104B7000AB4214D3336813930122139C1346964619
:104B80000025002F7FF44EAFBEF1000F3FF47FAE43
:104B9000B9465AE70023002A7FF42AAFDDE7002355
:104BA000002F7FF43FAFEFE7029D6146A146AC4680
:104BB00099B122680A920A9ADFF890E0921B524556
:104BC0000BD3DEF8002009920121099E02910A46CA
:104BD00000270660DDF804C05EE707B3226808928C
:104BE000089A921BBA421AD3D9F800200B924FF0C0
:104BF000010C0B9E62466546002791B1B3F57A7FA2
:104C000007DD63468C461946002D3FF4A7AE0660CB
:104C1000A0E623680793079BC8EB0303C8E70022BD
:104C2000EBE764468C462146002D3FF439AFCDF8C2
:104C300004C0CEE7856083732DE68760827391E6BA
:104C40004A46E9E680F80CC02AE700BF4825FF1F66
:104C50002DE9F0412C4E337886B0002B2ED12B4B12
:104C60001B785BBB2A4F3B7843BB2A4B1B782BBB83
:104C70007B781BBB284D2B6805930A20DDF8148038
:104C80001EF02EF82A68254B0492049A1B78C8EB74
:104C90000204F3B9224991F8003213B9B4F57A7FCE
:104CA0001CDD2B680193019BC8EB0303B3F57A7FEE
:104CB00021DA3378144A0BB90123137006B0BDE82A
:104CC000F081B4F57A7FECDC2B680393039AC8EB90
:104CD000020408F09BFF0028F3D1E2E72B6802935F
:104CE000029A91F80032C8EB0202002BD9D1B2F53A
:104CF0007A7FF3DDD5E70B4B1B78012BDED0012348
:104D00003B7006B0BDE8F081B02AFF1F992CFF1F51
:104D1000AD1EFF1F812CFF1F4825FF1FD41EFF1F44
:104D20001C18FE43BE1EFF1F4D4B1B78122B11D8C3
:104D3000DFE803F011181F262D343C434A52596115
:104D4000686F777F878F0A00464A474B4749116053
:104D5000E0221A807047434A434B45491160F022D4
:104D60001A8070473F4A404B42491160E0221A8046
:104D700070473C4A3C4B40491160C0221A80704742
:104D8000384A394B3D491160E0221A807047354A54
:104D9000354B3B491160E0221A807047314A324B53
:104DA000384911604FF480721A8070472D4A2E4B9B
:104DB00035491160E0221A8070472A4A2A4B33494C
:104DC0001160E0221A807047264A274B3049116053
:104DD0004FF480721A807047224A234B2D4911608C
:104DE000E0221A8070471F4A1F4B2B4911604FF475
:104DF00080721A8070471B4A1B4B28491160F022B1
:104E00001A807047174A184B25491160E0221A8012
:104E10007047144A144B234911604FF480721A8072
:104E20007047104A104B204911604FF480721A806D
:104E300070470C4A0C4B1D4911604FF480721A8068
:104E40007047084A084B1A4911604FF480721A8063
:104E50007047044A044B17491160E0221A807047DA
:104E6000BF1EFF1FE82AFF1FEC2AFF1FFCCA02001B
:104E70001C990200EC9B02008C9E0200CCA0020058
:104E80006CA302000CA602000CA90200ACAB02004D
:104E90004CAE02004CB10200ECB30200ECB60200D2
:104EA000BCB902005CBC02005CBF02005CC2020034
:104EB0005CC502005CC802002DE9F04F4E4B4F4E1E
:104EC0004F4D1C794F4902464FF480771868376080
:104ED0004FF410732B60C2F80E00632383B09474F8
:104EE0000968494819F066FC422148481BF078FAE5
:104EF000474B1B780121002B4BD14FF4A07023F0BE
:104F000025FF49F2BE4A814600F5A077414B19685A
:104F10004B46514431F8022F1A70120A5A7002336C
:104F20009F42F7D14FF004084C46267865784FF041
:104F3000040B01210DF107008DF807601BF050FAFA
:104F400001210DF106008DF806501BF049FA0BF116
:104F5000FF3313F0FF0BECD10234A742E5D108F187
:104F6000FF3818F0FF08DFD1AAF5A07A1AF5A17F63
:104F7000CCD1484623F0FAFE1AF092FD1F49204B8F
:104F80004FF410704FF4807208601A6003B0BDE8EF
:104F9000F08F4FF4A06023F0D9FE1F4CDFF8808023
:104FA0001E4F0546461CD8F8002004F5207302EB7E
:104FB000030E1119334631F8022FD0B28E454FEA55
:104FC000122203F8010C58701A709A7003F104034E
:104FD000F1D14FF4A06128461BF002FAA4F5207429
:104FE0004FF4A06128461BF0FBF9BC42DBD12846F8
:104FF00023F0BCFEC0E700BF5C95020014B0044083
:1050000004C00440182DFF1FD429FF1F9CCD0200AF
:10501000792AFF1FD02AFF1F7E5502007EFDFFFF69
:10502000DC2AFF1F2DE98048784B1B7893B0002BBA
:1050300040F0D880764B0193FFF776FE754B1B78D6
:105040000BB10BF067FB0322734902201DF0B0FD8A
:1050500072481EF09BFA7249724B00220A7003F5E7
:10506000C07143F8042B8B42FBD1DFF808926E4DE0
:105070006E4CDFF804B2DFF8D0A16D4B6D4A1B68AF
:105080009288002B00F0F08419885B88CB1A1A44B0
:10509000002A11DD11F050FA642800F0EF80644B13
:1050A000644A1B6891881BB11A885B88D31A19441B
:1050B000002901DD11F040FA5F4B604A1B6806933E
:1050C0005168069B92685D485B1A934218D3002A88
:1050D00000F0A1810378002B40F09D810A444260DA
:1050E000574B1B7863B12B784F4A002B00F09A8105
:1050F000514B52491B680993099B4B600023137065
:10510000474B474A1B78012B00F0DD819AF80030AD
:10511000022B00F065823F4B1B78002B72D11BF0F5
:10512000F9FC17F025FF9AF800303BB93C4B1B788F
:1051300023B9444B1B780BB918F068FE9AF800307D
:10514000414A032B04BF012313709AF80030012B4E
:1051500000F06F843B4BDFF8EC801B78012B00F0F4
:105160004B833A4B1B78002B87D0394B93F8008048
:10517000B8F1010F81D1374B1F781A46002F40F04C
:10518000B985354B1B78DA0741F1FD80334B1B782D
:1051900003F0FF06002B40F03D872F4B1B78DB0709
:1051A00041F19B812E4B1B78C82B01F091812A4B3A
:1051B0001B78DF0741F188812A4B1B78C82B01F04F
:1051C0006F81254B1B78DE0741F19481264B1B78BC
:1051D000C82B01F0EB80254817F0A0FE1B4A0023E6
:1051E00013704AE70A4B01931B78002B7FF424AF1E
:1051F0001F4B93F88022002A01F0C581012283F819
:10520000802019E7FEF71AFF8BE700BFDC1EFF1FA7
:10521000792AFF1FBE1EFF1FF1470000514C0000FE
:10522000B02AFF1F002BFF1FBC1EFF1FD41EFF1F35
:105230007C23FF1F6C24FF1F4825FF1FB01EFF1F8C
:10524000D81EFF1F992CFF1F812CFF1FAD1EFF1FB3
:10525000D82AFF1FF82AFF1F01000240A4000014F3
:10526000780000149E000014A300001468CF020010
:105270003400FE437C2AFF1F082AFF1FB04BB14FAA
:105280004CF6596001265E7007F0BCFE0821C9F893
:105290000070AD4F89F80410CE2139700C20AB4F4F
:1052A00089F80500592038702023A94F89F8063065
:1052B00000233B70A74FA8483B705F22A74F89F897
:1052C000072042F20E716E223B7016F043F9AA22BB
:1052D00042F20E71A24816F03DF94FF47A701DF0BB
:1052E000FFFCA04B93F88032002B00F0E5819D4B32
:1052F00083F800619C4B1B78002B40F0E7819B4BAF
:105300001B785B070FD5019B99491B780222012B63
:105310000A7000F0518400200CF0C6FD019B1E783D
:10532000012E00F05184642301210DF116008DF847
:10533000163011F06DF908F0C3FDC82301210DF1FD
:1053400017008DF8173011F063F9864B93F880320F
:10535000002B00F0DB81834A012382F880304CF679
:105360005960784F07F04EFE0820C9F80070764F5C
:1053700089F80400CE2038700C23744F89F805306A
:1053800059233B70724B7B4800261E70714B2022C4
:105390001E705F21714B89F8062089F807106E2274
:1053A00042F20E711E7016F0D5F84FF47A701DF0AF
:1053B00097FC714B1B786BB1704B18681F4628B176
:1053C00011F06CF83E6001E011F068F812F0C6FED2
:1053D0000028F9D16A4B1878002840F09D81634B72
:1053E0001B785F070ED5019B61491B780222012BB8
:1053F0000A7000F06C850CF057FD019B1B78012BA7
:1054000000F0A681584B1B78002B40F0B2814C4A2B
:105410000023537050E65B4B5B4A1B680793079B66
:1054200053605DE60121594817F010FD4FF47A7082
:105430001DF056FC4B4B93F88032002B00F0088394
:10544000484A012382F8003123780220002B00F023
:1054500027811BF0CBFF0138C0B20128F4D83D4EA4
:105460000027052137703D4E08464FF00108EB2319
:1054700040F23B1285F80080377007F007FB0421EB
:105480000846EC234FF49E7207F000FB414640486B
:1054900017F0DCFC334B93F88032002B00F0DE82F7
:1054A000304B83F880804FF47A701DF019FC354B37
:1054B000354A1B680893089B5360364B354A1B7866
:1054C000012B7FF423AE34491E4F0878022313705A
:1054D00016F0ACFB01F068F81A4A3048304BC9F8B6
:1054E0000020082220210C2689F804205F22076072
:1054F00089F8061089F8072003F5F07089F805602F
:1055000000224FF40041274EDE601A805A809A80B4
:10551000DA801981183383424FF00006F3D14FF43B
:10552000FA701DF0DDFB144B1B78002B50D0134B91
:1055300018681F4610B110F0B1FF3E601A4E37E0F8
:10554000AD1EFF1FE0A20300872AFF1F882AFF1F4E
:10555000862AFF1F842AFF1F78CF0200852AFF1F9B
:1055600094CF02000410FE43DC1EFF1FFC12FF1F3D
:10557000061FFF1F18CE02008A23FF1F7C23FF1F78
:10558000BE1EFF1F4825FF1FB01EFF1F34CE0200A6
:1055900058CE0200B02AFF1FBD1EFF1F0C30FF1F98
:1055A000242DFF1F1CD202005C24FF1F10F076FF89
:1055B00072B67C4B9B683BB17B4A198892885868CD
:1055C000B060521A78498A8062B61846002BEDD135
:1055D000764A002313709AF80030022B7FF49BADBB
:1055E000734B1B78002B00F07182019B1B78012B01
:1055F00000F06C820FF0D8FDB0F57A7FC0F0A18288
:1056000000216C48FCF7B6FB6B4B1B78022B08BFE4
:10561000F82200F0F685012B00F0EA86032B00F05B
:10562000EF85042B00F09586644AFF231370644ACB
:105630001370644B64491A78644BC9F80030012335
:105640000B70102389F8043089F80530202389F87D
:1056500006305F2389F8073022B15D4B1B78002BA1
:1056600000F0DE855B4B1B78002B00F0B1854622F5
:1056700042F20E71584815F06DFF032308228AF894
:1056800000300C23554989F8042089F80530202280
:105690005F23C9F8001089F8062089F807303AE539
:1056A0001BF070FD14201DF01BFBBBF90830B3F597
:1056B000C87FBFF6D4AEC7E6494A136823F0020399
:1056C0001360484B1B78002B3FF419AE384B1B7806
:1056D000002B3FF414AE019B1B78012B00F0648279
:1056E000414B93F88032002B00F092853E4A012313
:1056F00082F800313D4B3B491B7800220A705A0763
:105700007FF511AE3A4A0223137004E6344A136857
:1057100043F00303136022E6019B1B78002B00F08B
:10572000CE83344A1278002A40F05C822F490978EF
:105730004E077FF567AE2E49012B0A7000F0658495
:1057400022200CF0B1FB019B1B78012B7FF45AAE99
:105750000121842015F030F80121842015F02CF867
:105760000221842015F028F81E4B1B78002B3FF4F3
:105770004EAE0F4B1B78002B3FF449AE019B1B78BC
:10578000012B3FF444AE184B93F88032002B00F00D
:105790002785154A012382F80031124A002313702D
:1057A00035E600BF5C24FF1F6C24FF1FB02AFF1FDB
:1057B000C81EFF1F842CFF1FC71EFF1F842AFF1F48
:1057C000852AFF1FF81EFF1F862AFF1FB81103003E
:1057D000BE1EFF1FC41EFF1FA4CE0200E0A20300D6
:1057E00004B00440DC1EFF1F3400FE43FC12FF1F08
:1057F000061FFF1F7A2AFF1FA04B1B78002B40F0CB
:10580000FF819F4B1B78002B00F02882019B1B78A7
:10581000012B00F023820FF0C7FCB0F57A7FC0F0B7
:105820003682984F002605213E70974F0846EB239D
:1058300040F23B123E7007F029F904210846EC23A0
:105840004FF49E7207F022F9B046904E904F16F03A
:10585000B3FCC9F800608F4E86F800808E4E7B2026
:1058600030708E4E8E484FF0CF0E86F800E0102339
:10587000844E89F8043089F80530FF2333702022E4
:105880005F21814E89F8062089F807100E2242F226
:105890000E71337015F05EFE07F5F07039463B4629
:1058A0004FF400427F4EA3F80080A3F80280A3F8D3
:1058B0000480A3F806801A81DE6018338342F1D198
:1058C000B1F90830784A71481060002BC0F20F8699
:1058D0006F4B0022B3F92000002802F1010203F10E
:1058E0001803F7DA02EB420201EBC2030F20A3F820
:1058F000088021F832004FF08C00B1F90820988020
:105900002F206A4E5880002A4FF07800DE60C3F8DE
:105910001080C3F8148083F80A80D880C0F2E48530
:105920005B4B0022B3F92000002802F1010203F1D1
:105930001803F7DA02EB420201EBC203A520A3F839
:10594000088021F832004FF08C00B1F908209880CF
:105950002F20574E5880002A4FF07800DE60C3F8A1
:105960001080C3F8148083F80A80D880C0F2B9850B
:10597000474B0022B3F92000002802F1010203F195
:105980001803F7DA02EB420201EBC2030F2021F801
:1059900032004FF08C00BC21282298804548A3F8A3
:1059A0000880D860C3F81080C3F8148083F80A8098
:1059B0005980DA800026B7F90830002B304607F10D
:1059C000180706F1010601DB0CF0CCFD142EF2D114
:1059D000012623780220ABB11BF008FD0138C0B2CC
:1059E0000128F6D8002101202E700CF0B3FCD0B1B4
:1059F000012800F071820228EBD12F4A0023137096
:105A0000FFF7AFBB1BF0BEFB14201DF069F9BBF91B
:105A10000830B3F5C87FDCDB002101202E700CF0CC
:105A200099FC0028E4D1254B18801CF0CFFBFFF730
:105A300098BB234B1B78E3B9104B1B78013B012B20
:105A400017D90FF023FC00238AF80030FFF782BB40
:105A50001C4A136823F002031360F5E4194A136823
:105A600043F0030313601EE5002A3FF425ABFFF764
:105A700011BB1548FFF720FAE3E700BFBE1EFF1F6A
:105A8000C81EFF1F842AFF1F852AFF1FB8110300AD
:105A9000242DFF1F862AFF1F872AFF1F882AFF1F2A
:105AA000DCCE02001CD202000C30FF1FE8CE020048
:105AB000F0CE0200DC960200992CFF1FBC2FFF1FC6
:105AC000011FFF1F04B00440842CFF1F0FF018FBC0
:105AD000064600287FF48EAD4CF6596007F092FA26
